{
  "contractName": "CardToken",
  "abi": [
    {
      "inputs": [],
      "stateMutability": "nonpayable",
      "type": "constructor"
    },
    {
      "anonymous": false,
      "inputs": [
        {
          "indexed": true,
          "internalType": "address",
          "name": "owner",
          "type": "address"
        },
        {
          "indexed": true,
          "internalType": "address",
          "name": "approved",
          "type": "address"
        },
        {
          "indexed": true,
          "internalType": "uint256",
          "name": "tokenId",
          "type": "uint256"
        }
      ],
      "name": "Approval",
      "type": "event"
    },
    {
      "anonymous": false,
      "inputs": [
        {
          "indexed": true,
          "internalType": "address",
          "name": "owner",
          "type": "address"
        },
        {
          "indexed": true,
          "internalType": "address",
          "name": "operator",
          "type": "address"
        },
        {
          "indexed": false,
          "internalType": "bool",
          "name": "approved",
          "type": "bool"
        }
      ],
      "name": "ApprovalForAll",
      "type": "event"
    },
    {
      "anonymous": false,
      "inputs": [
        {
          "indexed": true,
          "internalType": "address",
          "name": "from",
          "type": "address"
        },
        {
          "indexed": true,
          "internalType": "address",
          "name": "to",
          "type": "address"
        },
        {
          "indexed": true,
          "internalType": "uint256",
          "name": "tokenId",
          "type": "uint256"
        }
      ],
      "name": "Transfer",
      "type": "event"
    },
    {
      "inputs": [
        {
          "internalType": "uint256",
          "name": "",
          "type": "uint256"
        }
      ],
      "name": "Cards",
      "outputs": [
        {
          "internalType": "uint256",
          "name": "id",
          "type": "uint256"
        },
        {
          "internalType": "string",
          "name": "uri",
          "type": "string"
        }
      ],
      "stateMutability": "view",
      "type": "function"
    },
    {
      "inputs": [
        {
          "internalType": "address",
          "name": "to",
          "type": "address"
        },
        {
          "internalType": "uint256",
          "name": "tokenId",
          "type": "uint256"
        }
      ],
      "name": "approve",
      "outputs": [],
      "stateMutability": "nonpayable",
      "type": "function"
    },
    {
      "inputs": [
        {
          "internalType": "address",
          "name": "owner",
          "type": "address"
        }
      ],
      "name": "balanceOf",
      "outputs": [
        {
          "internalType": "uint256",
          "name": "",
          "type": "uint256"
        }
      ],
      "stateMutability": "view",
      "type": "function"
    },
    {
      "inputs": [
        {
          "internalType": "uint256",
          "name": "tokenId",
          "type": "uint256"
        }
      ],
      "name": "getApproved",
      "outputs": [
        {
          "internalType": "address",
          "name": "",
          "type": "address"
        }
      ],
      "stateMutability": "view",
      "type": "function"
    },
    {
      "inputs": [
        {
          "internalType": "address",
          "name": "owner",
          "type": "address"
        },
        {
          "internalType": "address",
          "name": "operator",
          "type": "address"
        }
      ],
      "name": "isApprovedForAll",
      "outputs": [
        {
          "internalType": "bool",
          "name": "",
          "type": "bool"
        }
      ],
      "stateMutability": "view",
      "type": "function"
    },
    {
      "inputs": [],
      "name": "name",
      "outputs": [
        {
          "internalType": "string",
          "name": "",
          "type": "string"
        }
      ],
      "stateMutability": "view",
      "type": "function"
    },
    {
      "inputs": [
        {
          "internalType": "uint256",
          "name": "tokenId",
          "type": "uint256"
        }
      ],
      "name": "ownerOf",
      "outputs": [
        {
          "internalType": "address",
          "name": "",
          "type": "address"
        }
      ],
      "stateMutability": "view",
      "type": "function"
    },
    {
      "inputs": [
        {
          "internalType": "address",
          "name": "from",
          "type": "address"
        },
        {
          "internalType": "address",
          "name": "to",
          "type": "address"
        },
        {
          "internalType": "uint256",
          "name": "tokenId",
          "type": "uint256"
        }
      ],
      "name": "safeTransferFrom",
      "outputs": [],
      "stateMutability": "nonpayable",
      "type": "function"
    },
    {
      "inputs": [
        {
          "internalType": "address",
          "name": "from",
          "type": "address"
        },
        {
          "internalType": "address",
          "name": "to",
          "type": "address"
        },
        {
          "internalType": "uint256",
          "name": "tokenId",
          "type": "uint256"
        },
        {
          "internalType": "bytes",
          "name": "_data",
          "type": "bytes"
        }
      ],
      "name": "safeTransferFrom",
      "outputs": [],
      "stateMutability": "nonpayable",
      "type": "function"
    },
    {
      "inputs": [
        {
          "internalType": "address",
          "name": "operator",
          "type": "address"
        },
        {
          "internalType": "bool",
          "name": "approved",
          "type": "bool"
        }
      ],
      "name": "setApprovalForAll",
      "outputs": [],
      "stateMutability": "nonpayable",
      "type": "function"
    },
    {
      "inputs": [
        {
          "internalType": "bytes4",
          "name": "interfaceId",
          "type": "bytes4"
        }
      ],
      "name": "supportsInterface",
      "outputs": [
        {
          "internalType": "bool",
          "name": "",
          "type": "bool"
        }
      ],
      "stateMutability": "view",
      "type": "function"
    },
    {
      "inputs": [],
      "name": "symbol",
      "outputs": [
        {
          "internalType": "string",
          "name": "",
          "type": "string"
        }
      ],
      "stateMutability": "view",
      "type": "function"
    },
    {
      "inputs": [
        {
          "internalType": "address",
          "name": "from",
          "type": "address"
        },
        {
          "internalType": "address",
          "name": "to",
          "type": "address"
        },
        {
          "internalType": "uint256",
          "name": "tokenId",
          "type": "uint256"
        }
      ],
      "name": "transferFrom",
      "outputs": [],
      "stateMutability": "nonpayable",
      "type": "function"
    },
    {
      "inputs": [
        {
          "internalType": "string",
          "name": "uri",
          "type": "string"
        }
      ],
      "name": "mintCard",
      "outputs": [
        {
          "internalType": "uint256",
          "name": "",
          "type": "uint256"
        }
      ],
      "stateMutability": "nonpayable",
      "type": "function"
    },
    {
      "inputs": [
        {
          "internalType": "uint256",
          "name": "cardId",
          "type": "uint256"
        }
      ],
      "name": "tokenURI",
      "outputs": [
        {
          "internalType": "string",
          "name": "",
          "type": "string"
        }
      ],
      "stateMutability": "view",
      "type": "function"
    }
  ],
  "bytecode": "0x60806040523480156200001157600080fd5b50604080516020808201808452600080845284519283019094528382528251929391926200004192919062000060565b5080516200005790600190602084019062000060565b5050506200015c565b8280546200006e9062000106565b90600052602060002090601f016020900481019282620000925760008555620000dd565b82601f10620000ad57805160ff1916838001178555620000dd565b82800160010185558215620000dd579182015b82811115620000dd578251825591602001919060010190620000c0565b50620000eb929150620000ef565b5090565b5b80821115620000eb5760008155600101620000f0565b6002810460018216806200011b57607f821691505b6020821081141562000156577f4e487b7100000000000000000000000000000000000000000000000000000000600052602260045260246000fd5b50919050565b611945806200016c6000396000f3fe608060405234801561001057600080fd5b5060043610610112576000357c01000000000000000000000000000000000000000000000000000000009004806370a08231116100b4578063c87b56dd11610083578063c87b56dd1461021c578063d77678ef1461022f578063e985e9c514610250578063f0ce51201461028c57600080fd5b806370a08231146101cd57806395d89b41146101ee578063a22cb465146101f6578063b88d4fde1461020957600080fd5b8063095ea7b3116100f0578063095ea7b31461017f57806323b872dd1461019457806342842e0e146101a75780636352211e146101ba57600080fd5b806301ffc9a71461011757806306fdde031461013f578063081812fc14610154575b600080fd5b61012a6101253660046114b8565b61029f565b60405190151581526020015b60405180910390f35b610147610384565b6040516101369190611529565b61016761016236600461153c565b610416565b604051600160a060020a039091168152602001610136565b61019261018d366004611571565b6104c9565b005b6101926101a236600461159b565b61060b565b6101926101b536600461159b565b61069a565b6101676101c836600461153c565b6106b5565b6101e06101db3660046115d7565b610748565b604051908152602001610136565b6101476107ea565b6101926102043660046115f2565b6107f9565b6101926102173660046116d3565b610808565b61014761022a36600461153c565b61089e565b61024261023d36600461153c565b6109d4565b60405161013692919061174f565b61012a61025e366004611768565b600160a060020a03918216600090815260056020908152604080832093909416825291909152205460ff1690565b6101e061029a36600461179b565b610a79565b60007fffffffff0000000000000000000000000000000000000000000000000000000082167f80ac58cd00000000000000000000000000000000000000000000000000000000148061033257507fffffffff0000000000000000000000000000000000000000000000000000000082167f5b5e139f00000000000000000000000000000000000000000000000000000000145b8061037e57507f01ffc9a7000000000000000000000000000000000000000000000000000000007fffffffff000000000000000000000000000000000000000000000000000000008316145b92915050565b606060008054610393906117e4565b80601f01602080910402602001604051908101604052809291908181526020018280546103bf906117e4565b801561040c5780601f106103e15761010080835404028352916020019161040c565b820191906000526020600020905b8154815290600101906020018083116103ef57829003601f168201915b5050505050905090565b600081815260026020526040812054600160a060020a03166104ad576040516000805160206118f0833981519152815260206004820152602c60248201527f4552433732313a20617070726f76656420717565727920666f72206e6f6e657860448201527f697374656e7420746f6b656e000000000000000000000000000000000000000060648201526084015b60405180910390fd5b50600090815260046020526040902054600160a060020a031690565b60006104d4826106b5565b905080600160a060020a031683600160a060020a03161415610566576040516000805160206118f0833981519152815260206004820152602160248201527f4552433732313a20617070726f76616c20746f2063757272656e74206f776e6560448201527f720000000000000000000000000000000000000000000000000000000000000060648201526084016104a4565b33600160a060020a03821614806105825750610582813361025e565b6105fc576040516000805160206118f0833981519152815260206004820152603860248201527f4552433732313a20617070726f76652063616c6c6572206973206e6f74206f7760448201527f6e6572206e6f7220617070726f76656420666f7220616c6c000000000000000060648201526084016104a4565b6106068383610b61565b505050565b6106153382610bdc565b61068f576040516000805160206118f0833981519152815260206004820152603160248201527f4552433732313a207472616e736665722063616c6c6572206973206e6f74206f60448201527f776e6572206e6f7220617070726f76656400000000000000000000000000000060648201526084016104a4565b610606838383610cec565b61060683838360405180602001604052806000815250610808565b600081815260026020526040812054600160a060020a03168061037e576040516000805160206118f0833981519152815260206004820152602960248201527f4552433732313a206f776e657220717565727920666f72206e6f6e657869737460448201527f656e7420746f6b656e000000000000000000000000000000000000000000000060648201526084016104a4565b6000600160a060020a0382166107ce576040516000805160206118f0833981519152815260206004820152602a60248201527f4552433732313a2062616c616e636520717565727920666f7220746865207a6560448201527f726f20616464726573730000000000000000000000000000000000000000000060648201526084016104a4565b50600160a060020a031660009081526003602052604090205490565b606060018054610393906117e4565b610804338383610ed6565b5050565b6108123383610bdc565b61088c576040516000805160206118f0833981519152815260206004820152603160248201527f4552433732313a207472616e736665722063616c6c6572206973206e6f74206f60448201527f776e6572206e6f7220617070726f76656400000000000000000000000000000060648201526084016104a4565b61089884848484610fad565b50505050565b600081815260026020526040902054606090600160a060020a0316610933576040516000805160206118f0833981519152815260206004820152602f60248201527f4552433732314d657461646174613a2055524920717565727920666f72206e6f60448201527f6e6578697374656e7420746f6b656e000000000000000000000000000000000060648201526084016104a4565b6000828152600960205260409020600101805461094f906117e4565b80601f016020809104026020016040519081016040528092919081815260200182805461097b906117e4565b80156109c85780601f1061099d576101008083540402835291602001916109c8565b820191906000526020600020905b8154815290600101906020018083116109ab57829003601f168201915b50505050509050919050565b600960205260009081526040902080546001820180549192916109f6906117e4565b80601f0160208091040260200160405190810160405280929190818152602001828054610a22906117e4565b8015610a6f5780601f10610a4457610100808354040283529160200191610a6f565b820191906000526020600020905b815481529060010190602001808311610a5257829003601f168201915b5050505050905082565b600033610af6576040516000805160206118f0833981519152815260206004820152602260248201527f62656e6566696369617279206164647265737320646f6573206e6f742065786960448201527f737400000000000000000000000000000000000000000000000000000000000060648201526084016104a4565b610b04600680546001019055565b6000610b0f60065490565b9050610b1b338261103e565b6040805180820182528281526020808201868152600085815260098352939093208251815592518051929392610b5792600185019201906113ee565b5091949350505050565b6000818152600460205260409020805473ffffffffffffffffffffffffffffffffffffffff1916600160a060020a0384169081179091558190610ba3826106b5565b600160a060020a03167f8c5be1e5ebec7d5bd14f71427d1e84f3dd0314c0f7b2291e5b200ac8c7c3b92560405160405180910390a45050565b600081815260026020526040812054600160a060020a0316610c6e576040516000805160206118f0833981519152815260206004820152602c60248201527f4552433732313a206f70657261746f7220717565727920666f72206e6f6e657860448201527f697374656e7420746f6b656e000000000000000000000000000000000000000060648201526084016104a4565b6000610c79836106b5565b905080600160a060020a031684600160a060020a03161480610cb4575083600160a060020a0316610ca984610416565b600160a060020a0316145b80610ce45750600160a060020a0380821660009081526005602090815260408083209388168352929052205460ff165b949350505050565b82600160a060020a0316610cff826106b5565b600160a060020a031614610d83576040516000805160206118f0833981519152815260206004820152602560248201527f4552433732313a207472616e736665722066726f6d20696e636f72726563742060448201527f6f776e657200000000000000000000000000000000000000000000000000000060648201526084016104a4565b600160a060020a038216610e06576040516000805160206118f08339815191528152602060048201526024808201527f4552433732313a207472616e7366657220746f20746865207a65726f2061646460448201527f726573730000000000000000000000000000000000000000000000000000000060648201526084016104a4565b610e11600082610b61565b600160a060020a0383166000908152600360205260408120805460019290610e3a908490611867565b9091555050600160a060020a0382166000908152600360205260408120805460019290610e6890849061187e565b9091555050600081815260026020526040808220805473ffffffffffffffffffffffffffffffffffffffff1916600160a060020a0386811691821790925591518493918716917fddf252ad1be2c89b69c2b068fc378daa952ba7f163c4a11628f55a4df523b3ef91a4505050565b81600160a060020a031683600160a060020a03161415610f40576040516000805160206118f0833981519152815260206004820152601960248201527f4552433732313a20617070726f766520746f2063616c6c65720000000000000060448201526064016104a4565b600160a060020a03838116600081815260056020908152604080832094871680845294825291829020805460ff191686151590811790915591519182527f17307eab39ab6107e8899845ad3d59bd9653f200f220920489ca2b5937696c31910160405180910390a3505050565b610fb8848484610cec565b610fc484848484611058565b610898576040516000805160206118f0833981519152815260206004820152603260248201527f4552433732313a207472616e7366657220746f206e6f6e20455243373231526560448201527f63656976657220696d706c656d656e746572000000000000000000000000000060648201526084016104a4565b6108048282604051806020016040528060008152506111fe565b6000600160a060020a0384163b156111f3576040517f150b7a02000000000000000000000000000000000000000000000000000000008152600160a060020a0385169063150b7a02906110b5903390899088908890600401611896565b6020604051808303816000875af19250505080156110f0575060408051601f3d908101601f191682019092526110ed918101906118d2565b60015b6111a8573d80801561111e576040519150601f19603f3d011682016040523d82523d6000602084013e611123565b606091505b5080516111a0576040516000805160206118f0833981519152815260206004820152603260248201527f4552433732313a207472616e7366657220746f206e6f6e20455243373231526560448201527f63656976657220696d706c656d656e746572000000000000000000000000000060648201526084016104a4565b805181602001fd5b7fffffffff00000000000000000000000000000000000000000000000000000000167f150b7a0200000000000000000000000000000000000000000000000000000000149050610ce4565b506001949350505050565b611208838361128f565b6112156000848484611058565b610606576040516000805160206118f0833981519152815260206004820152603260248201527f4552433732313a207472616e7366657220746f206e6f6e20455243373231526560448201527f63656976657220696d706c656d656e746572000000000000000000000000000060648201526084016104a4565b600160a060020a0382166112ed576040516000805160206118f0833981519152815260206004820181905260248201527f4552433732313a206d696e7420746f20746865207a65726f206164647265737360448201526064016104a4565b600081815260026020526040902054600160a060020a03161561135a576040516000805160206118f0833981519152815260206004820152601c60248201527f4552433732313a20746f6b656e20616c7265616479206d696e7465640000000060448201526064016104a4565b600160a060020a038216600090815260036020526040812080546001929061138390849061187e565b9091555050600081815260026020526040808220805473ffffffffffffffffffffffffffffffffffffffff1916600160a060020a03861690811790915590518392907fddf252ad1be2c89b69c2b068fc378daa952ba7f163c4a11628f55a4df523b3ef908290a45050565b8280546113fa906117e4565b90600052602060002090601f01602090048101928261141c5760008555611462565b82601f1061143557805160ff1916838001178555611462565b82800160010185558215611462579182015b82811115611462578251825591602001919060010190611447565b5061146e929150611472565b5090565b5b8082111561146e5760008155600101611473565b7fffffffff00000000000000000000000000000000000000000000000000000000811681146114b557600080fd5b50565b6000602082840312156114ca57600080fd5b81356114d581611487565b9392505050565b6000815180845260005b81811015611502576020818501810151868301820152016114e6565b81811115611514576000602083870101525b50601f01601f19169290920160200192915050565b6020815260006114d560208301846114dc565b60006020828403121561154e57600080fd5b5035919050565b8035600160a060020a038116811461156c57600080fd5b919050565b6000806040838503121561158457600080fd5b61158d83611555565b946020939093013593505050565b6000806000606084860312156115b057600080fd5b6115b984611555565b92506115c760208501611555565b9150604084013590509250925092565b6000602082840312156115e957600080fd5b6114d582611555565b6000806040838503121561160557600080fd5b61160e83611555565b91506020830135801515811461162357600080fd5b809150509250929050565b7f4e487b7100000000000000000000000000000000000000000000000000000000600052604160045260246000fd5b600067ffffffffffffffff808411156116785761167861162e565b604051601f8501601f19908116603f011681019082821181831017156116a0576116a061162e565b816040528093508581528686860111156116b957600080fd5b858560208301376000602087830101525050509392505050565b600080600080608085870312156116e957600080fd5b6116f285611555565b935061170060208601611555565b925060408501359150606085013567ffffffffffffffff81111561172357600080fd5b8501601f8101871361173457600080fd5b6117438782356020840161165d565b91505092959194509250565b828152604060208201526000610ce460408301846114dc565b6000806040838503121561177b57600080fd5b61178483611555565b915061179260208401611555565b90509250929050565b6000602082840312156117ad57600080fd5b813567ffffffffffffffff8111156117c457600080fd5b8201601f810184136117d557600080fd5b610ce48482356020840161165d565b6002810460018216806117f857607f821691505b60208210811415611832577f4e487b7100000000000000000000000000000000000000000000000000000000600052602260045260246000fd5b50919050565b7f4e487b7100000000000000000000000000000000000000000000000000000000600052601160045260246000fd5b60008282101561187957611879611838565b500390565b6000821982111561189157611891611838565b500190565b6000600160a060020a038087168352808616602084015250836040830152608060608301526118c860808301846114dc565b9695505050505050565b6000602082840312156118e457600080fd5b81516114d58161148756fe08c379a000000000000000000000000000000000000000000000000000000000a2646970667358221220f840362bede25fbacb7e1b31847f4d5a2c30b861709c8474045c3a2fd8db41d864736f6c634300080b0033",
  "immutableReferences": {},
  "source": "pragma solidity ^0.8.0;\n\nimport \"../node_modules/@openzeppelin/contracts/token/ERC721/ERC721.sol\";\nimport \"../node_modules/@openzeppelin/contracts/utils/Address.sol\";\nimport \"../node_modules/@openzeppelin/contracts/utils/Counters.sol\";\n\n\ncontract CardToken is ERC721 {\n    using Counters for Counters.Counter;\n    Counters.Counter private _tokenIds;\n \n   //@TODO: add name and symbol \n   constructor () ERC721(\"\",\"\"){}\n\n   /**\n    * Defines an nft card \n    */\n    struct Card {\n\n        // unique ID for given card \n        uint256 id;\n\n        // universal resource identifier for the card use in frontend\n        string uri;\n    }\n    \n    mapping(address => uint256) ownerTokenCount;\n    mapping(uint256 => address) tokenOwner;\n    mapping(uint256 => Card) public Cards;\n\n    /**\n     * Mints a new card  \n     */\n    function mintCard(string memory uri) \n        public\n    returns(uint256) {\n        require(msg.sender != address(0), \"beneficiary address does not exist\");\n        _tokenIds.increment();\n        uint256 newCardId = _tokenIds.current();\n        _safeMint(msg.sender, newCardId);\n\n        Cards[newCardId] = Card(newCardId, uri);\n\n        return newCardId;\n    }\n\n    function tokenURI(uint256 cardId) public view override returns (string memory) {\n        require(_exists(cardId), \"ERC721Metadata: URI query for nonexistent token\");\n\n        return Cards[cardId].uri;\n    }\n} \n\n",
  "sourcePath": "/Users/eerinahaque/Projects/GitHub/HT/contracts/CardToken.sol",
  "compiler": {
    "name": "solc",
    "version": "0.8.11+commit.d7f03943.Emscripten.clang"
  },
  "schemaVersion": "3.4.1",
  "updatedAt": "2022-02-13T17:56:41.750Z",
  "devdoc": {
    "kind": "dev",
    "methods": {
      "approve(address,uint256)": {
        "details": "See {IERC721-approve}."
      },
      "balanceOf(address)": {
        "details": "See {IERC721-balanceOf}."
      },
      "getApproved(uint256)": {
        "details": "See {IERC721-getApproved}."
      },
      "isApprovedForAll(address,address)": {
        "details": "See {IERC721-isApprovedForAll}."
      },
      "name()": {
        "details": "See {IERC721Metadata-name}."
      },
      "ownerOf(uint256)": {
        "details": "See {IERC721-ownerOf}."
      },
      "safeTransferFrom(address,address,uint256)": {
        "details": "See {IERC721-safeTransferFrom}."
      },
      "safeTransferFrom(address,address,uint256,bytes)": {
        "details": "See {IERC721-safeTransferFrom}."
      },
      "setApprovalForAll(address,bool)": {
        "details": "See {IERC721-setApprovalForAll}."
      },
      "supportsInterface(bytes4)": {
        "details": "See {IERC165-supportsInterface}."
      },
      "symbol()": {
        "details": "See {IERC721Metadata-symbol}."
      },
      "transferFrom(address,address,uint256)": {
        "details": "See {IERC721-transferFrom}."
      }
    },
    "version": 1
  },
  "userdoc": {
    "kind": "user",
    "methods": {
      "mintCard(string)": {
        "notice": "Mints a new card  "
      }
    },
    "version": 1
  }
}