{
  "contractName": "CardToken",
  "abi": [
    {
      "inputs": [],
      "stateMutability": "nonpayable",
      "type": "constructor"
    },
    {
      "anonymous": false,
      "inputs": [
        {
          "indexed": true,
          "internalType": "address",
          "name": "owner",
          "type": "address"
        },
        {
          "indexed": true,
          "internalType": "address",
          "name": "approved",
          "type": "address"
        },
        {
          "indexed": true,
          "internalType": "uint256",
          "name": "tokenId",
          "type": "uint256"
        }
      ],
      "name": "Approval",
      "type": "event"
    },
    {
      "anonymous": false,
      "inputs": [
        {
          "indexed": true,
          "internalType": "address",
          "name": "owner",
          "type": "address"
        },
        {
          "indexed": true,
          "internalType": "address",
          "name": "operator",
          "type": "address"
        },
        {
          "indexed": false,
          "internalType": "bool",
          "name": "approved",
          "type": "bool"
        }
      ],
      "name": "ApprovalForAll",
      "type": "event"
    },
    {
      "anonymous": false,
      "inputs": [
        {
          "indexed": true,
          "internalType": "address",
          "name": "from",
          "type": "address"
        },
        {
          "indexed": true,
          "internalType": "address",
          "name": "to",
          "type": "address"
        },
        {
          "indexed": true,
          "internalType": "uint256",
          "name": "tokenId",
          "type": "uint256"
        }
      ],
      "name": "Transfer",
      "type": "event"
    },
    {
      "inputs": [
        {
          "internalType": "uint256",
          "name": "",
          "type": "uint256"
        }
      ],
      "name": "Cards",
      "outputs": [
        {
          "internalType": "uint256",
          "name": "id",
          "type": "uint256"
        },
        {
          "internalType": "string",
          "name": "uri",
          "type": "string"
        }
      ],
      "stateMutability": "view",
      "type": "function"
    },
    {
      "inputs": [
        {
          "internalType": "address",
          "name": "to",
          "type": "address"
        },
        {
          "internalType": "uint256",
          "name": "tokenId",
          "type": "uint256"
        }
      ],
      "name": "approve",
      "outputs": [],
      "stateMutability": "nonpayable",
      "type": "function"
    },
    {
      "inputs": [
        {
          "internalType": "address",
          "name": "owner",
          "type": "address"
        }
      ],
      "name": "balanceOf",
      "outputs": [
        {
          "internalType": "uint256",
          "name": "",
          "type": "uint256"
        }
      ],
      "stateMutability": "view",
      "type": "function"
    },
    {
      "inputs": [
        {
          "internalType": "uint256",
          "name": "tokenId",
          "type": "uint256"
        }
      ],
      "name": "getApproved",
      "outputs": [
        {
          "internalType": "address",
          "name": "",
          "type": "address"
        }
      ],
      "stateMutability": "view",
      "type": "function"
    },
    {
      "inputs": [
        {
          "internalType": "address",
          "name": "owner",
          "type": "address"
        },
        {
          "internalType": "address",
          "name": "operator",
          "type": "address"
        }
      ],
      "name": "isApprovedForAll",
      "outputs": [
        {
          "internalType": "bool",
          "name": "",
          "type": "bool"
        }
      ],
      "stateMutability": "view",
      "type": "function"
    },
    {
      "inputs": [],
      "name": "name",
      "outputs": [
        {
          "internalType": "string",
          "name": "",
          "type": "string"
        }
      ],
      "stateMutability": "view",
      "type": "function"
    },
    {
      "inputs": [
        {
          "internalType": "uint256",
          "name": "tokenId",
          "type": "uint256"
        }
      ],
      "name": "ownerOf",
      "outputs": [
        {
          "internalType": "address",
          "name": "",
          "type": "address"
        }
      ],
      "stateMutability": "view",
      "type": "function"
    },
    {
      "inputs": [
        {
          "internalType": "address",
          "name": "from",
          "type": "address"
        },
        {
          "internalType": "address",
          "name": "to",
          "type": "address"
        },
        {
          "internalType": "uint256",
          "name": "tokenId",
          "type": "uint256"
        }
      ],
      "name": "safeTransferFrom",
      "outputs": [],
      "stateMutability": "nonpayable",
      "type": "function"
    },
    {
      "inputs": [
        {
          "internalType": "address",
          "name": "from",
          "type": "address"
        },
        {
          "internalType": "address",
          "name": "to",
          "type": "address"
        },
        {
          "internalType": "uint256",
          "name": "tokenId",
          "type": "uint256"
        },
        {
          "internalType": "bytes",
          "name": "_data",
          "type": "bytes"
        }
      ],
      "name": "safeTransferFrom",
      "outputs": [],
      "stateMutability": "nonpayable",
      "type": "function"
    },
    {
      "inputs": [
        {
          "internalType": "address",
          "name": "operator",
          "type": "address"
        },
        {
          "internalType": "bool",
          "name": "approved",
          "type": "bool"
        }
      ],
      "name": "setApprovalForAll",
      "outputs": [],
      "stateMutability": "nonpayable",
      "type": "function"
    },
    {
      "inputs": [
        {
          "internalType": "bytes4",
          "name": "interfaceId",
          "type": "bytes4"
        }
      ],
      "name": "supportsInterface",
      "outputs": [
        {
          "internalType": "bool",
          "name": "",
          "type": "bool"
        }
      ],
      "stateMutability": "view",
      "type": "function"
    },
    {
      "inputs": [],
      "name": "symbol",
      "outputs": [
        {
          "internalType": "string",
          "name": "",
          "type": "string"
        }
      ],
      "stateMutability": "view",
      "type": "function"
    },
    {
      "inputs": [
        {
          "internalType": "address",
          "name": "from",
          "type": "address"
        },
        {
          "internalType": "address",
          "name": "to",
          "type": "address"
        },
        {
          "internalType": "uint256",
          "name": "tokenId",
          "type": "uint256"
        }
      ],
      "name": "transferFrom",
      "outputs": [],
      "stateMutability": "nonpayable",
      "type": "function"
    },
    {
      "inputs": [
        {
          "internalType": "string",
          "name": "uri",
          "type": "string"
        }
      ],
      "name": "mintCard",
      "outputs": [
        {
          "internalType": "uint256",
          "name": "",
          "type": "uint256"
        }
      ],
      "stateMutability": "nonpayable",
      "type": "function"
    },
    {
      "inputs": [
        {
          "internalType": "uint256",
          "name": "cardId",
          "type": "uint256"
        }
      ],
      "name": "tokenURI",
      "outputs": [
        {
          "internalType": "string",
          "name": "",
          "type": "string"
        }
      ],
      "stateMutability": "view",
      "type": "function"
    }
  ],
  "bytecode": "0x60806040523480156200001157600080fd5b50604051806020016040528060008152506040518060200160405280600081525081600090805190602001906200004a9291906200006c565b508060019080519060200190620000639291906200006c565b50505062000181565b8280546200007a906200014b565b90600052602060002090601f0160209004810192826200009e5760008555620000ea565b82601f10620000b957805160ff1916838001178555620000ea565b82800160010185558215620000ea579182015b82811115620000e9578251825591602001919060010190620000cc565b5b509050620000f99190620000fd565b5090565b5b8082111562000118576000816000905550600101620000fe565b5090565b7f4e487b7100000000000000000000000000000000000000000000000000000000600052602260045260246000fd5b600060028204905060018216806200016457607f821691505b602082108114156200017b576200017a6200011c565b5b50919050565b61290680620001916000396000f3fe608060405234801561001057600080fd5b50600436106100f55760003560e01c806370a0823111610097578063c87b56dd11610066578063c87b56dd14610282578063d77678ef146102b2578063e985e9c5146102e3578063f0ce512014610313576100f5565b806370a08231146101fc57806395d89b411461022c578063a22cb4651461024a578063b88d4fde14610266576100f5565b8063095ea7b3116100d3578063095ea7b31461017857806323b872dd1461019457806342842e0e146101b05780636352211e146101cc576100f5565b806301ffc9a7146100fa57806306fdde031461012a578063081812fc14610148575b600080fd5b610114600480360381019061010f9190611846565b610343565b604051610121919061188e565b60405180910390f35b610132610425565b60405161013f9190611942565b60405180910390f35b610162600480360381019061015d919061199a565b6104b7565b60405161016f9190611a08565b60405180910390f35b610192600480360381019061018d9190611a4f565b61053c565b005b6101ae60048036038101906101a99190611a8f565b610654565b005b6101ca60048036038101906101c59190611a8f565b6106b4565b005b6101e660048036038101906101e1919061199a565b6106d4565b6040516101f39190611a08565b60405180910390f35b61021660048036038101906102119190611ae2565b610786565b6040516102239190611b1e565b60405180910390f35b61023461083e565b6040516102419190611942565b60405180910390f35b610264600480360381019061025f9190611b65565b6108d0565b005b610280600480360381019061027b9190611cda565b6108e6565b005b61029c6004803603810190610297919061199a565b610948565b6040516102a99190611942565b60405180910390f35b6102cc60048036038101906102c7919061199a565b610a38565b6040516102da929190611d5d565b60405180910390f35b6102fd60048036038101906102f89190611d8d565b610ae4565b60405161030a919061188e565b60405180910390f35b61032d60048036038101906103289190611e6e565b610b78565b60405161033a9190611b1e565b60405180910390f35b60007f80ac58cd000000000000000000000000000000000000000000000000000000007bffffffffffffffffffffffffffffffffffffffffffffffffffffffff1916827bffffffffffffffffffffffffffffffffffffffffffffffffffffffff1916148061040e57507f5b5e139f000000000000000000000000000000000000000000000000000000007bffffffffffffffffffffffffffffffffffffffffffffffffffffffff1916827bffffffffffffffffffffffffffffffffffffffffffffffffffffffff1916145b8061041e575061041d82610c66565b5b9050919050565b60606000805461043490611ee6565b80601f016020809104026020016040519081016040528092919081815260200182805461046090611ee6565b80156104ad5780601f10610482576101008083540402835291602001916104ad565b820191906000526020600020905b81548152906001019060200180831161049057829003601f168201915b5050505050905090565b60006104c282610cd0565b610501576040517f08c379a00000000000000000000000000000000000000000000000000000000081526004016104f890611f8a565b60405180910390fd5b6004600083815260200190815260200160002060009054906101000a900473ffffffffffffffffffffffffffffffffffffffff169050919050565b6000610547826106d4565b90508073ffffffffffffffffffffffffffffffffffffffff168373ffffffffffffffffffffffffffffffffffffffff1614156105b8576040517f08c379a00000000000000000000000000000000000000000000000000000000081526004016105af9061201c565b60405180910390fd5b8073ffffffffffffffffffffffffffffffffffffffff166105d7610d3c565b73ffffffffffffffffffffffffffffffffffffffff161480610606575061060581610600610d3c565b610ae4565b5b610645576040517f08c379a000000000000000000000000000000000000000000000000000000000815260040161063c906120ae565b60405180910390fd5b61064f8383610d44565b505050565b61066561065f610d3c565b82610dfd565b6106a4576040517f08c379a000000000000000000000000000000000000000000000000000000000815260040161069b90612140565b60405180910390fd5b6106af838383610edb565b505050565b6106cf838383604051806020016040528060008152506108e6565b505050565b6000806002600084815260200190815260200160002060009054906101000a900473ffffffffffffffffffffffffffffffffffffffff169050600073ffffffffffffffffffffffffffffffffffffffff168173ffffffffffffffffffffffffffffffffffffffff16141561077d576040517f08c379a0000000000000000000000000000000000000000000000000000000008152600401610774906121d2565b60405180910390fd5b80915050919050565b60008073ffffffffffffffffffffffffffffffffffffffff168273ffffffffffffffffffffffffffffffffffffffff1614156107f7576040517f08c379a00000000000000000000000000000000000000000000000000000000081526004016107ee90612264565b60405180910390fd5b600360008373ffffffffffffffffffffffffffffffffffffffff1673ffffffffffffffffffffffffffffffffffffffff168152602001908152602001600020549050919050565b60606001805461084d90611ee6565b80601f016020809104026020016040519081016040528092919081815260200182805461087990611ee6565b80156108c65780601f1061089b576101008083540402835291602001916108c6565b820191906000526020600020905b8154815290600101906020018083116108a957829003601f168201915b5050505050905090565b6108e26108db610d3c565b8383611142565b5050565b6108f76108f1610d3c565b83610dfd565b610936576040517f08c379a000000000000000000000000000000000000000000000000000000000815260040161092d90612140565b60405180910390fd5b610942848484846112af565b50505050565b606061095382610cd0565b610992576040517f08c379a0000000000000000000000000000000000000000000000000000000008152600401610989906122f6565b60405180910390fd5b6009600083815260200190815260200160002060010180546109b390611ee6565b80601f01602080910402602001604051908101604052809291908181526020018280546109df90611ee6565b8015610a2c5780601f10610a0157610100808354040283529160200191610a2c565b820191906000526020600020905b815481529060010190602001808311610a0f57829003601f168201915b50505050509050919050565b6009602052806000526040600020600091509050806000015490806001018054610a6190611ee6565b80601f0160208091040260200160405190810160405280929190818152602001828054610a8d90611ee6565b8015610ada5780601f10610aaf57610100808354040283529160200191610ada565b820191906000526020600020905b815481529060010190602001808311610abd57829003601f168201915b5050505050905082565b6000600560008473ffffffffffffffffffffffffffffffffffffffff1673ffffffffffffffffffffffffffffffffffffffff16815260200190815260200160002060008373ffffffffffffffffffffffffffffffffffffffff1673ffffffffffffffffffffffffffffffffffffffff16815260200190815260200160002060009054906101000a900460ff16905092915050565b60008073ffffffffffffffffffffffffffffffffffffffff163373ffffffffffffffffffffffffffffffffffffffff161415610be9576040517f08c379a0000000000000000000000000000000000000000000000000000000008152600401610be090612388565b60405180910390fd5b610bf3600661130b565b6000610bff6006611321565b9050610c0b338261132f565b60405180604001604052808281526020018481525060096000838152602001908152602001600020600082015181600001556020820151816001019080519060200190610c59929190611737565b5090505080915050919050565b60007f01ffc9a7000000000000000000000000000000000000000000000000000000007bffffffffffffffffffffffffffffffffffffffffffffffffffffffff1916827bffffffffffffffffffffffffffffffffffffffffffffffffffffffff1916149050919050565b60008073ffffffffffffffffffffffffffffffffffffffff166002600084815260200190815260200160002060009054906101000a900473ffffffffffffffffffffffffffffffffffffffff1673ffffffffffffffffffffffffffffffffffffffff1614159050919050565b600033905090565b816004600083815260200190815260200160002060006101000a81548173ffffffffffffffffffffffffffffffffffffffff021916908373ffffffffffffffffffffffffffffffffffffffff160217905550808273ffffffffffffffffffffffffffffffffffffffff16610db7836106d4565b73ffffffffffffffffffffffffffffffffffffffff167f8c5be1e5ebec7d5bd14f71427d1e84f3dd0314c0f7b2291e5b200ac8c7c3b92560405160405180910390a45050565b6000610e0882610cd0565b610e47576040517f08c379a0000000000000000000000000000000000000000000000000000000008152600401610e3e9061241a565b60405180910390fd5b6000610e52836106d4565b90508073ffffffffffffffffffffffffffffffffffffffff168473ffffffffffffffffffffffffffffffffffffffff161480610ec157508373ffffffffffffffffffffffffffffffffffffffff16610ea9846104b7565b73ffffffffffffffffffffffffffffffffffffffff16145b80610ed25750610ed18185610ae4565b5b91505092915050565b8273ffffffffffffffffffffffffffffffffffffffff16610efb826106d4565b73ffffffffffffffffffffffffffffffffffffffff1614610f51576040517f08c379a0000000000000000000000000000000000000000000000000000000008152600401610f48906124ac565b60405180910390fd5b600073ffffffffffffffffffffffffffffffffffffffff168273ffffffffffffffffffffffffffffffffffffffff161415610fc1576040517f08c379a0000000000000000000000000000000000000000000000000000000008152600401610fb89061253e565b60405180910390fd5b610fcc83838361134d565b610fd7600082610d44565b6001600360008573ffffffffffffffffffffffffffffffffffffffff1673ffffffffffffffffffffffffffffffffffffffff1681526020019081526020016000206000828254611027919061258d565b925050819055506001600360008473ffffffffffffffffffffffffffffffffffffffff1673ffffffffffffffffffffffffffffffffffffffff168152602001908152602001600020600082825461107e91906125c1565b92505081905550816002600083815260200190815260200160002060006101000a81548173ffffffffffffffffffffffffffffffffffffffff021916908373ffffffffffffffffffffffffffffffffffffffff160217905550808273ffffffffffffffffffffffffffffffffffffffff168473ffffffffffffffffffffffffffffffffffffffff167fddf252ad1be2c89b69c2b068fc378daa952ba7f163c4a11628f55a4df523b3ef60405160405180910390a461113d838383611352565b505050565b8173ffffffffffffffffffffffffffffffffffffffff168373ffffffffffffffffffffffffffffffffffffffff1614156111b1576040517f08c379a00000000000000000000000000000000000000000000000000000000081526004016111a890612663565b60405180910390fd5b80600560008573ffffffffffffffffffffffffffffffffffffffff1673ffffffffffffffffffffffffffffffffffffffff16815260200190815260200160002060008473ffffffffffffffffffffffffffffffffffffffff1673ffffffffffffffffffffffffffffffffffffffff16815260200190815260200160002060006101000a81548160ff0219169083151502179055508173ffffffffffffffffffffffffffffffffffffffff168373ffffffffffffffffffffffffffffffffffffffff167f17307eab39ab6107e8899845ad3d59bd9653f200f220920489ca2b5937696c31836040516112a2919061188e565b60405180910390a3505050565b6112ba848484610edb565b6112c684848484611357565b611305576040517f08c379a00000000000000000000000000000000000000000000000000000000081526004016112fc906126f5565b60405180910390fd5b50505050565b6001816000016000828254019250508190555050565b600081600001549050919050565b6113498282604051806020016040528060008152506114df565b5050565b505050565b505050565b60006113788473ffffffffffffffffffffffffffffffffffffffff1661153a565b156114d2578373ffffffffffffffffffffffffffffffffffffffff1663150b7a026113a1610d3c565b8786866040518563ffffffff1660e01b81526004016113c3949392919061276a565b6020604051808303816000875af19250505080156113ff57506040513d601f19601f820116820180604052508101906113fc91906127cb565b60015b611482573d806000811461142f576040519150601f19603f3d011682016040523d82523d6000602084013e611434565b606091505b5060008151141561147a576040517f08c379a0000000000000000000000000000000000000000000000000000000008152600401611471906126f5565b60405180910390fd5b805181602001fd5b63150b7a0260e01b7bffffffffffffffffffffffffffffffffffffffffffffffffffffffff1916817bffffffffffffffffffffffffffffffffffffffffffffffffffffffff1916149150506114d7565b600190505b949350505050565b6114e9838361155d565b6114f66000848484611357565b611535576040517f08c379a000000000000000000000000000000000000000000000000000000000815260040161152c906126f5565b60405180910390fd5b505050565b6000808273ffffffffffffffffffffffffffffffffffffffff163b119050919050565b600073ffffffffffffffffffffffffffffffffffffffff168273ffffffffffffffffffffffffffffffffffffffff1614156115cd576040517f08c379a00000000000000000000000000000000000000000000000000000000081526004016115c490612844565b60405180910390fd5b6115d681610cd0565b15611616576040517f08c379a000000000000000000000000000000000000000000000000000000000815260040161160d906128b0565b60405180910390fd5b6116226000838361134d565b6001600360008473ffffffffffffffffffffffffffffffffffffffff1673ffffffffffffffffffffffffffffffffffffffff168152602001908152602001600020600082825461167291906125c1565b92505081905550816002600083815260200190815260200160002060006101000a81548173ffffffffffffffffffffffffffffffffffffffff021916908373ffffffffffffffffffffffffffffffffffffffff160217905550808273ffffffffffffffffffffffffffffffffffffffff16600073ffffffffffffffffffffffffffffffffffffffff167fddf252ad1be2c89b69c2b068fc378daa952ba7f163c4a11628f55a4df523b3ef60405160405180910390a461173360008383611352565b5050565b82805461174390611ee6565b90600052602060002090601f01602090048101928261176557600085556117ac565b82601f1061177e57805160ff19168380011785556117ac565b828001600101855582156117ac579182015b828111156117ab578251825591602001919060010190611790565b5b5090506117b991906117bd565b5090565b5b808211156117d65760008160009055506001016117be565b5090565b6000604051905090565b600080fd5b600080fd5b60007fffffffff0000000000000000000000000000000000000000000000000000000082169050919050565b611823816117ee565b811461182e57600080fd5b50565b6000813590506118408161181a565b92915050565b60006020828403121561185c5761185b6117e4565b5b600061186a84828501611831565b91505092915050565b60008115159050919050565b61188881611873565b82525050565b60006020820190506118a3600083018461187f565b92915050565b600081519050919050565b600082825260208201905092915050565b60005b838110156118e35780820151818401526020810190506118c8565b838111156118f2576000848401525b50505050565b6000601f19601f8301169050919050565b6000611914826118a9565b61191e81856118b4565b935061192e8185602086016118c5565b611937816118f8565b840191505092915050565b6000602082019050818103600083015261195c8184611909565b905092915050565b6000819050919050565b61197781611964565b811461198257600080fd5b50565b6000813590506119948161196e565b92915050565b6000602082840312156119b0576119af6117e4565b5b60006119be84828501611985565b91505092915050565b600073ffffffffffffffffffffffffffffffffffffffff82169050919050565b60006119f2826119c7565b9050919050565b611a02816119e7565b82525050565b6000602082019050611a1d60008301846119f9565b92915050565b611a2c816119e7565b8114611a3757600080fd5b50565b600081359050611a4981611a23565b92915050565b60008060408385031215611a6657611a656117e4565b5b6000611a7485828601611a3a565b9250506020611a8585828601611985565b9150509250929050565b600080600060608486031215611aa857611aa76117e4565b5b6000611ab686828701611a3a565b9350506020611ac786828701611a3a565b9250506040611ad886828701611985565b9150509250925092565b600060208284031215611af857611af76117e4565b5b6000611b0684828501611a3a565b91505092915050565b611b1881611964565b82525050565b6000602082019050611b336000830184611b0f565b92915050565b611b4281611873565b8114611b4d57600080fd5b50565b600081359050611b5f81611b39565b92915050565b60008060408385031215611b7c57611b7b6117e4565b5b6000611b8a85828601611a3a565b9250506020611b9b85828601611b50565b9150509250929050565b600080fd5b600080fd5b7f4e487b7100000000000000000000000000000000000000000000000000000000600052604160045260246000fd5b611be7826118f8565b810181811067ffffffffffffffff82111715611c0657611c05611baf565b5b80604052505050565b6000611c196117da565b9050611c258282611bde565b919050565b600067ffffffffffffffff821115611c4557611c44611baf565b5b611c4e826118f8565b9050602081019050919050565b82818337600083830152505050565b6000611c7d611c7884611c2a565b611c0f565b905082815260208101848484011115611c9957611c98611baa565b5b611ca4848285611c5b565b509392505050565b600082601f830112611cc157611cc0611ba5565b5b8135611cd1848260208601611c6a565b91505092915050565b60008060008060808587031215611cf457611cf36117e4565b5b6000611d0287828801611a3a565b9450506020611d1387828801611a3a565b9350506040611d2487828801611985565b925050606085013567ffffffffffffffff811115611d4557611d446117e9565b5b611d5187828801611cac565b91505092959194509250565b6000604082019050611d726000830185611b0f565b8181036020830152611d848184611909565b90509392505050565b60008060408385031215611da457611da36117e4565b5b6000611db285828601611a3a565b9250506020611dc385828601611a3a565b9150509250929050565b600067ffffffffffffffff821115611de857611de7611baf565b5b611df1826118f8565b9050602081019050919050565b6000611e11611e0c84611dcd565b611c0f565b905082815260208101848484011115611e2d57611e2c611baa565b5b611e38848285611c5b565b509392505050565b600082601f830112611e5557611e54611ba5565b5b8135611e65848260208601611dfe565b91505092915050565b600060208284031215611e8457611e836117e4565b5b600082013567ffffffffffffffff811115611ea257611ea16117e9565b5b611eae84828501611e40565b91505092915050565b7f4e487b7100000000000000000000000000000000000000000000000000000000600052602260045260246000fd5b60006002820490506001821680611efe57607f821691505b60208210811415611f1257611f11611eb7565b5b50919050565b7f4552433732313a20617070726f76656420717565727920666f72206e6f6e657860008201527f697374656e7420746f6b656e0000000000000000000000000000000000000000602082015250565b6000611f74602c836118b4565b9150611f7f82611f18565b604082019050919050565b60006020820190508181036000830152611fa381611f67565b9050919050565b7f4552433732313a20617070726f76616c20746f2063757272656e74206f776e6560008201527f7200000000000000000000000000000000000000000000000000000000000000602082015250565b60006120066021836118b4565b915061201182611faa565b604082019050919050565b6000602082019050818103600083015261203581611ff9565b9050919050565b7f4552433732313a20617070726f76652063616c6c6572206973206e6f74206f7760008201527f6e6572206e6f7220617070726f76656420666f7220616c6c0000000000000000602082015250565b60006120986038836118b4565b91506120a38261203c565b604082019050919050565b600060208201905081810360008301526120c78161208b565b9050919050565b7f4552433732313a207472616e736665722063616c6c6572206973206e6f74206f60008201527f776e6572206e6f7220617070726f766564000000000000000000000000000000602082015250565b600061212a6031836118b4565b9150612135826120ce565b604082019050919050565b600060208201905081810360008301526121598161211d565b9050919050565b7f4552433732313a206f776e657220717565727920666f72206e6f6e657869737460008201527f656e7420746f6b656e0000000000000000000000000000000000000000000000602082015250565b60006121bc6029836118b4565b91506121c782612160565b604082019050919050565b600060208201905081810360008301526121eb816121af565b9050919050565b7f4552433732313a2062616c616e636520717565727920666f7220746865207a6560008201527f726f206164647265737300000000000000000000000000000000000000000000602082015250565b600061224e602a836118b4565b9150612259826121f2565b604082019050919050565b6000602082019050818103600083015261227d81612241565b9050919050565b7f4552433732314d657461646174613a2055524920717565727920666f72206e6f60008201527f6e6578697374656e7420746f6b656e0000000000000000000000000000000000602082015250565b60006122e0602f836118b4565b91506122eb82612284565b604082019050919050565b6000602082019050818103600083015261230f816122d3565b9050919050565b7f62656e6566696369617279206164647265737320646f6573206e6f742065786960008201527f7374000000000000000000000000000000000000000000000000000000000000602082015250565b60006123726022836118b4565b915061237d82612316565b604082019050919050565b600060208201905081810360008301526123a181612365565b9050919050565b7f4552433732313a206f70657261746f7220717565727920666f72206e6f6e657860008201527f697374656e7420746f6b656e0000000000000000000000000000000000000000602082015250565b6000612404602c836118b4565b915061240f826123a8565b604082019050919050565b60006020820190508181036000830152612433816123f7565b9050919050565b7f4552433732313a207472616e736665722066726f6d20696e636f72726563742060008201527f6f776e6572000000000000000000000000000000000000000000000000000000602082015250565b60006124966025836118b4565b91506124a18261243a565b604082019050919050565b600060208201905081810360008301526124c581612489565b9050919050565b7f4552433732313a207472616e7366657220746f20746865207a65726f2061646460008201527f7265737300000000000000000000000000000000000000000000000000000000602082015250565b60006125286024836118b4565b9150612533826124cc565b604082019050919050565b600060208201905081810360008301526125578161251b565b9050919050565b7f4e487b7100000000000000000000000000000000000000000000000000000000600052601160045260246000fd5b600061259882611964565b91506125a383611964565b9250828210156125b6576125b561255e565b5b828203905092915050565b60006125cc82611964565b91506125d783611964565b9250827fffffffffffffffffffffffffffffffffffffffffffffffffffffffffffffffff0382111561260c5761260b61255e565b5b828201905092915050565b7f4552433732313a20617070726f766520746f2063616c6c657200000000000000600082015250565b600061264d6019836118b4565b915061265882612617565b602082019050919050565b6000602082019050818103600083015261267c81612640565b9050919050565b7f4552433732313a207472616e7366657220746f206e6f6e20455243373231526560008201527f63656976657220696d706c656d656e7465720000000000000000000000000000602082015250565b60006126df6032836118b4565b91506126ea82612683565b604082019050919050565b6000602082019050818103600083015261270e816126d2565b9050919050565b600081519050919050565b600082825260208201905092915050565b600061273c82612715565b6127468185612720565b93506127568185602086016118c5565b61275f816118f8565b840191505092915050565b600060808201905061277f60008301876119f9565b61278c60208301866119f9565b6127996040830185611b0f565b81810360608301526127ab8184612731565b905095945050505050565b6000815190506127c58161181a565b92915050565b6000602082840312156127e1576127e06117e4565b5b60006127ef848285016127b6565b91505092915050565b7f4552433732313a206d696e7420746f20746865207a65726f2061646472657373600082015250565b600061282e6020836118b4565b9150612839826127f8565b602082019050919050565b6000602082019050818103600083015261285d81612821565b9050919050565b7f4552433732313a20746f6b656e20616c7265616479206d696e74656400000000600082015250565b600061289a601c836118b4565b91506128a582612864565b602082019050919050565b600060208201905081810360008301526128c98161288d565b905091905056fea264697066735822122067241c47edc066b970638f06ea6b554eae38366b37427ae6e0636e9d70f91ba364736f6c634300080b0033",
  "immutableReferences": {},
  "source": "pragma solidity ^0.8.0;\n\nimport \"../node_modules/@openzeppelin/contracts/token/ERC721/ERC721.sol\";\nimport \"../node_modules/@openzeppelin/contracts/utils/Address.sol\";\nimport \"../node_modules/@openzeppelin/contracts/utils/Counters.sol\";\n\n\ncontract CardToken is ERC721 {\n    using Counters for Counters.Counter;\n    Counters.Counter private _tokenIds;\n \n   //@TODO: add name and symbol \n   constructor () ERC721(\"\",\"\"){}\n\n   /**\n    * Defines an nft card \n    */\n    struct Card {\n\n        // unique ID for given card \n        uint256 id;\n\n        // universal resource identifier for the card use in frontend\n        string uri;\n    }\n    \n    mapping(address => uint256) ownerTokenCount;\n    mapping(uint256 => address) tokenOwner;\n    mapping(uint256 => Card) public Cards;\n\n    /**\n     * Mints a new card  \n     */\n    function mintCard(string memory uri) \n        public\n    returns(uint256) {\n        require(msg.sender != address(0), \"beneficiary address does not exist\");\n        _tokenIds.increment();\n        uint256 newCardId = _tokenIds.current();\n        _safeMint(msg.sender, newCardId);\n\n        Cards[newCardId] = Card(newCardId, uri);\n\n        return newCardId;\n    }\n\n    function tokenURI(uint256 cardId) public view override returns (string memory) {\n        require(_exists(cardId), \"ERC721Metadata: URI query for nonexistent token\");\n\n        return Cards[cardId].uri;\n    }\n} \n\n",
  "sourcePath": "/Users/eerinahaque/Projects/GitHub/HT/contracts/CardToken.sol",
  "compiler": {
    "name": "solc",
    "version": "0.8.11+commit.d7f03943.Emscripten.clang"
  },
  "schemaVersion": "3.4.1",
  "updatedAt": "2022-02-13T08:01:17.098Z",
  "devdoc": {
    "kind": "dev",
    "methods": {
      "approve(address,uint256)": {
        "details": "See {IERC721-approve}."
      },
      "balanceOf(address)": {
        "details": "See {IERC721-balanceOf}."
      },
      "getApproved(uint256)": {
        "details": "See {IERC721-getApproved}."
      },
      "isApprovedForAll(address,address)": {
        "details": "See {IERC721-isApprovedForAll}."
      },
      "name()": {
        "details": "See {IERC721Metadata-name}."
      },
      "ownerOf(uint256)": {
        "details": "See {IERC721-ownerOf}."
      },
      "safeTransferFrom(address,address,uint256)": {
        "details": "See {IERC721-safeTransferFrom}."
      },
      "safeTransferFrom(address,address,uint256,bytes)": {
        "details": "See {IERC721-safeTransferFrom}."
      },
      "setApprovalForAll(address,bool)": {
        "details": "See {IERC721-setApprovalForAll}."
      },
      "supportsInterface(bytes4)": {
        "details": "See {IERC165-supportsInterface}."
      },
      "symbol()": {
        "details": "See {IERC721Metadata-symbol}."
      },
      "transferFrom(address,address,uint256)": {
        "details": "See {IERC721-transferFrom}."
      }
    },
    "version": 1
  },
  "userdoc": {
    "kind": "user",
    "methods": {
      "mintCard(string)": {
        "notice": "Mints a new card  "
      }
    },
    "version": 1
  }
}