{
  "contractName": "CardContract",
  "abi": [
    {
      "inputs": [],
      "stateMutability": "nonpayable",
      "type": "constructor"
    },
    {
      "anonymous": false,
      "inputs": [
        {
          "indexed": true,
          "internalType": "address",
          "name": "owner",
          "type": "address"
        },
        {
          "indexed": true,
          "internalType": "address",
          "name": "approved",
          "type": "address"
        },
        {
          "indexed": true,
          "internalType": "uint256",
          "name": "tokenId",
          "type": "uint256"
        }
      ],
      "name": "Approval",
      "type": "event"
    },
    {
      "anonymous": false,
      "inputs": [
        {
          "indexed": true,
          "internalType": "address",
          "name": "owner",
          "type": "address"
        },
        {
          "indexed": true,
          "internalType": "address",
          "name": "operator",
          "type": "address"
        },
        {
          "indexed": false,
          "internalType": "bool",
          "name": "approved",
          "type": "bool"
        }
      ],
      "name": "ApprovalForAll",
      "type": "event"
    },
    {
      "anonymous": false,
      "inputs": [
        {
          "indexed": true,
          "internalType": "address",
          "name": "from",
          "type": "address"
        },
        {
          "indexed": true,
          "internalType": "address",
          "name": "to",
          "type": "address"
        },
        {
          "indexed": true,
          "internalType": "uint256",
          "name": "tokenId",
          "type": "uint256"
        }
      ],
      "name": "Transfer",
      "type": "event"
    },
    {
      "inputs": [
        {
          "internalType": "uint256",
          "name": "",
          "type": "uint256"
        }
      ],
      "name": "Cards",
      "outputs": [
        {
          "internalType": "uint256",
          "name": "id",
          "type": "uint256"
        },
        {
          "internalType": "uint32",
          "name": "fee",
          "type": "uint32"
        },
        {
          "internalType": "address payable",
          "name": "beneficiary",
          "type": "address"
        },
        {
          "internalType": "string",
          "name": "uri",
          "type": "string"
        }
      ],
      "stateMutability": "view",
      "type": "function"
    },
    {
      "inputs": [
        {
          "internalType": "address",
          "name": "to",
          "type": "address"
        },
        {
          "internalType": "uint256",
          "name": "tokenId",
          "type": "uint256"
        }
      ],
      "name": "approve",
      "outputs": [],
      "stateMutability": "nonpayable",
      "type": "function"
    },
    {
      "inputs": [
        {
          "internalType": "address",
          "name": "owner",
          "type": "address"
        }
      ],
      "name": "balanceOf",
      "outputs": [
        {
          "internalType": "uint256",
          "name": "",
          "type": "uint256"
        }
      ],
      "stateMutability": "view",
      "type": "function"
    },
    {
      "inputs": [
        {
          "internalType": "uint256",
          "name": "tokenId",
          "type": "uint256"
        }
      ],
      "name": "getApproved",
      "outputs": [
        {
          "internalType": "address",
          "name": "",
          "type": "address"
        }
      ],
      "stateMutability": "view",
      "type": "function"
    },
    {
      "inputs": [
        {
          "internalType": "address",
          "name": "owner",
          "type": "address"
        },
        {
          "internalType": "address",
          "name": "operator",
          "type": "address"
        }
      ],
      "name": "isApprovedForAll",
      "outputs": [
        {
          "internalType": "bool",
          "name": "",
          "type": "bool"
        }
      ],
      "stateMutability": "view",
      "type": "function"
    },
    {
      "inputs": [],
      "name": "name",
      "outputs": [
        {
          "internalType": "string",
          "name": "",
          "type": "string"
        }
      ],
      "stateMutability": "view",
      "type": "function"
    },
    {
      "inputs": [
        {
          "internalType": "uint256",
          "name": "tokenId",
          "type": "uint256"
        }
      ],
      "name": "ownerOf",
      "outputs": [
        {
          "internalType": "address",
          "name": "",
          "type": "address"
        }
      ],
      "stateMutability": "view",
      "type": "function"
    },
    {
      "inputs": [
        {
          "internalType": "address",
          "name": "from",
          "type": "address"
        },
        {
          "internalType": "address",
          "name": "to",
          "type": "address"
        },
        {
          "internalType": "uint256",
          "name": "tokenId",
          "type": "uint256"
        }
      ],
      "name": "safeTransferFrom",
      "outputs": [],
      "stateMutability": "nonpayable",
      "type": "function"
    },
    {
      "inputs": [
        {
          "internalType": "address",
          "name": "from",
          "type": "address"
        },
        {
          "internalType": "address",
          "name": "to",
          "type": "address"
        },
        {
          "internalType": "uint256",
          "name": "tokenId",
          "type": "uint256"
        },
        {
          "internalType": "bytes",
          "name": "_data",
          "type": "bytes"
        }
      ],
      "name": "safeTransferFrom",
      "outputs": [],
      "stateMutability": "nonpayable",
      "type": "function"
    },
    {
      "inputs": [
        {
          "internalType": "address",
          "name": "operator",
          "type": "address"
        },
        {
          "internalType": "bool",
          "name": "approved",
          "type": "bool"
        }
      ],
      "name": "setApprovalForAll",
      "outputs": [],
      "stateMutability": "nonpayable",
      "type": "function"
    },
    {
      "inputs": [
        {
          "internalType": "bytes4",
          "name": "interfaceId",
          "type": "bytes4"
        }
      ],
      "name": "supportsInterface",
      "outputs": [
        {
          "internalType": "bool",
          "name": "",
          "type": "bool"
        }
      ],
      "stateMutability": "view",
      "type": "function"
    },
    {
      "inputs": [],
      "name": "symbol",
      "outputs": [
        {
          "internalType": "string",
          "name": "",
          "type": "string"
        }
      ],
      "stateMutability": "view",
      "type": "function"
    },
    {
      "inputs": [
        {
          "internalType": "address",
          "name": "from",
          "type": "address"
        },
        {
          "internalType": "address",
          "name": "to",
          "type": "address"
        },
        {
          "internalType": "uint256",
          "name": "tokenId",
          "type": "uint256"
        }
      ],
      "name": "transferFrom",
      "outputs": [],
      "stateMutability": "nonpayable",
      "type": "function"
    },
    {
      "inputs": [
        {
          "internalType": "string",
          "name": "uri",
          "type": "string"
        },
        {
          "internalType": "uint32",
          "name": "fee",
          "type": "uint32"
        },
        {
          "internalType": "address payable",
          "name": "beneficiary",
          "type": "address"
        }
      ],
      "name": "mintCard",
      "outputs": [
        {
          "internalType": "uint256",
          "name": "",
          "type": "uint256"
        }
      ],
      "stateMutability": "nonpayable",
      "type": "function"
    },
    {
      "inputs": [
        {
          "internalType": "uint256",
          "name": "cardId",
          "type": "uint256"
        }
      ],
      "name": "tokenURI",
      "outputs": [
        {
          "internalType": "string",
          "name": "",
          "type": "string"
        }
      ],
      "stateMutability": "view",
      "type": "function"
    }
  ],
  "bytecode": "0x60806040523480156200001157600080fd5b50604051806020016040528060008152506040518060200160405280600081525081600090805190602001906200004a9291906200006c565b508060019080519060200190620000639291906200006c565b50505062000181565b8280546200007a906200014b565b90600052602060002090601f0160209004810192826200009e5760008555620000ea565b82601f10620000b957805160ff1916838001178555620000ea565b82800160010185558215620000ea579182015b82811115620000e9578251825591602001919060010190620000cc565b5b509050620000f99190620000fd565b5090565b5b8082111562000118576000816000905550600101620000fe565b5090565b7f4e487b7100000000000000000000000000000000000000000000000000000000600052602260045260246000fd5b600060028204905060018216806200016457607f821691505b602082108114156200017b576200017a6200011c565b5b50919050565b612ab680620001916000396000f3fe608060405234801561001057600080fd5b50600436106100f55760003560e01c806370a0823111610097578063b88d4fde11610066578063b88d4fde14610296578063c87b56dd146102b2578063d77678ef146102e2578063e985e9c514610315576100f5565b806370a08231146101fc57806395d89b411461022c578063a22cb4651461024a578063acdef41814610266576100f5565b8063095ea7b3116100d3578063095ea7b31461017857806323b872dd1461019457806342842e0e146101b05780636352211e146101cc576100f5565b806301ffc9a7146100fa57806306fdde031461012a578063081812fc14610148575b600080fd5b610114600480360381019061010f919061191c565b610345565b6040516101219190611964565b60405180910390f35b610132610427565b60405161013f9190611a18565b60405180910390f35b610162600480360381019061015d9190611a70565b6104b9565b60405161016f9190611ade565b60405180910390f35b610192600480360381019061018d9190611b25565b61053e565b005b6101ae60048036038101906101a99190611b65565b610656565b005b6101ca60048036038101906101c59190611b65565b6106b6565b005b6101e660048036038101906101e19190611a70565b6106d6565b6040516101f39190611ade565b60405180910390f35b61021660048036038101906102119190611bb8565b610788565b6040516102239190611bf4565b60405180910390f35b610234610840565b6040516102419190611a18565b60405180910390f35b610264600480360381019061025f9190611c3b565b6108d2565b005b610280600480360381019061027b9190611e2a565b6108e8565b60405161028d9190611bf4565b60405180910390f35b6102b060048036038101906102ab9190611f3a565b610a6e565b005b6102cc60048036038101906102c79190611a70565b610ad0565b6040516102d99190611a18565b60405180910390f35b6102fc60048036038101906102f79190611a70565b610bc0565b60405161030c9493929190611fdb565b60405180910390f35b61032f600480360381019061032a9190612027565b610ca8565b60405161033c9190611964565b60405180910390f35b60007f80ac58cd000000000000000000000000000000000000000000000000000000007bffffffffffffffffffffffffffffffffffffffffffffffffffffffff1916827bffffffffffffffffffffffffffffffffffffffffffffffffffffffff1916148061041057507f5b5e139f000000000000000000000000000000000000000000000000000000007bffffffffffffffffffffffffffffffffffffffffffffffffffffffff1916827bffffffffffffffffffffffffffffffffffffffffffffffffffffffff1916145b80610420575061041f82610d3c565b5b9050919050565b60606000805461043690612096565b80601f016020809104026020016040519081016040528092919081815260200182805461046290612096565b80156104af5780601f10610484576101008083540402835291602001916104af565b820191906000526020600020905b81548152906001019060200180831161049257829003601f168201915b5050505050905090565b60006104c482610da6565b610503576040517f08c379a00000000000000000000000000000000000000000000000000000000081526004016104fa9061213a565b60405180910390fd5b6004600083815260200190815260200160002060009054906101000a900473ffffffffffffffffffffffffffffffffffffffff169050919050565b6000610549826106d6565b90508073ffffffffffffffffffffffffffffffffffffffff168373ffffffffffffffffffffffffffffffffffffffff1614156105ba576040517f08c379a00000000000000000000000000000000000000000000000000000000081526004016105b1906121cc565b60405180910390fd5b8073ffffffffffffffffffffffffffffffffffffffff166105d9610e12565b73ffffffffffffffffffffffffffffffffffffffff161480610608575061060781610602610e12565b610ca8565b5b610647576040517f08c379a000000000000000000000000000000000000000000000000000000000815260040161063e9061225e565b60405180910390fd5b6106518383610e1a565b505050565b610667610661610e12565b82610ed3565b6106a6576040517f08c379a000000000000000000000000000000000000000000000000000000000815260040161069d906122f0565b60405180910390fd5b6106b1838383610fb1565b505050565b6106d183838360405180602001604052806000815250610a6e565b505050565b6000806002600084815260200190815260200160002060009054906101000a900473ffffffffffffffffffffffffffffffffffffffff169050600073ffffffffffffffffffffffffffffffffffffffff168173ffffffffffffffffffffffffffffffffffffffff16141561077f576040517f08c379a000000000000000000000000000000000000000000000000000000000815260040161077690612382565b60405180910390fd5b80915050919050565b60008073ffffffffffffffffffffffffffffffffffffffff168273ffffffffffffffffffffffffffffffffffffffff1614156107f9576040517f08c379a00000000000000000000000000000000000000000000000000000000081526004016107f090612414565b60405180910390fd5b600360008373ffffffffffffffffffffffffffffffffffffffff1673ffffffffffffffffffffffffffffffffffffffff168152602001908152602001600020549050919050565b60606001805461084f90612096565b80601f016020809104026020016040519081016040528092919081815260200182805461087b90612096565b80156108c85780601f1061089d576101008083540402835291602001916108c8565b820191906000526020600020905b8154815290600101906020018083116108ab57829003601f168201915b5050505050905090565b6108e46108dd610e12565b8383611218565b5050565b60008073ffffffffffffffffffffffffffffffffffffffff168273ffffffffffffffffffffffffffffffffffffffff161415610959576040517f08c379a0000000000000000000000000000000000000000000000000000000008152600401610950906124a6565b60405180910390fd5b6109636006611385565b600061096f600661139b565b905061097b33826113a9565b60405180608001604052808281526020018563ffffffff1681526020018473ffffffffffffffffffffffffffffffffffffffff16815260200186815250600960008381526020019081526020016000206000820151816000015560208201518160010160006101000a81548163ffffffff021916908363ffffffff16021790555060408201518160010160046101000a81548173ffffffffffffffffffffffffffffffffffffffff021916908373ffffffffffffffffffffffffffffffffffffffff1602179055506060820151816002019080519060200190610a5f92919061180d565b50905050809150509392505050565b610a7f610a79610e12565b83610ed3565b610abe576040517f08c379a0000000000000000000000000000000000000000000000000000000008152600401610ab5906122f0565b60405180910390fd5b610aca848484846113c7565b50505050565b6060610adb82610da6565b610b1a576040517f08c379a0000000000000000000000000000000000000000000000000000000008152600401610b1190612538565b60405180910390fd5b600960008381526020019081526020016000206002018054610b3b90612096565b80601f0160208091040260200160405190810160405280929190818152602001828054610b6790612096565b8015610bb45780601f10610b8957610100808354040283529160200191610bb4565b820191906000526020600020905b815481529060010190602001808311610b9757829003601f168201915b50505050509050919050565b60096020528060005260406000206000915090508060000154908060010160009054906101000a900463ffffffff16908060010160049054906101000a900473ffffffffffffffffffffffffffffffffffffffff1690806002018054610c2590612096565b80601f0160208091040260200160405190810160405280929190818152602001828054610c5190612096565b8015610c9e5780601f10610c7357610100808354040283529160200191610c9e565b820191906000526020600020905b815481529060010190602001808311610c8157829003601f168201915b5050505050905084565b6000600560008473ffffffffffffffffffffffffffffffffffffffff1673ffffffffffffffffffffffffffffffffffffffff16815260200190815260200160002060008373ffffffffffffffffffffffffffffffffffffffff1673ffffffffffffffffffffffffffffffffffffffff16815260200190815260200160002060009054906101000a900460ff16905092915050565b60007f01ffc9a7000000000000000000000000000000000000000000000000000000007bffffffffffffffffffffffffffffffffffffffffffffffffffffffff1916827bffffffffffffffffffffffffffffffffffffffffffffffffffffffff1916149050919050565b60008073ffffffffffffffffffffffffffffffffffffffff166002600084815260200190815260200160002060009054906101000a900473ffffffffffffffffffffffffffffffffffffffff1673ffffffffffffffffffffffffffffffffffffffff1614159050919050565b600033905090565b816004600083815260200190815260200160002060006101000a81548173ffffffffffffffffffffffffffffffffffffffff021916908373ffffffffffffffffffffffffffffffffffffffff160217905550808273ffffffffffffffffffffffffffffffffffffffff16610e8d836106d6565b73ffffffffffffffffffffffffffffffffffffffff167f8c5be1e5ebec7d5bd14f71427d1e84f3dd0314c0f7b2291e5b200ac8c7c3b92560405160405180910390a45050565b6000610ede82610da6565b610f1d576040517f08c379a0000000000000000000000000000000000000000000000000000000008152600401610f14906125ca565b60405180910390fd5b6000610f28836106d6565b90508073ffffffffffffffffffffffffffffffffffffffff168473ffffffffffffffffffffffffffffffffffffffff161480610f9757508373ffffffffffffffffffffffffffffffffffffffff16610f7f846104b9565b73ffffffffffffffffffffffffffffffffffffffff16145b80610fa85750610fa78185610ca8565b5b91505092915050565b8273ffffffffffffffffffffffffffffffffffffffff16610fd1826106d6565b73ffffffffffffffffffffffffffffffffffffffff1614611027576040517f08c379a000000000000000000000000000000000000000000000000000000000815260040161101e9061265c565b60405180910390fd5b600073ffffffffffffffffffffffffffffffffffffffff168273ffffffffffffffffffffffffffffffffffffffff161415611097576040517f08c379a000000000000000000000000000000000000000000000000000000000815260040161108e906126ee565b60405180910390fd5b6110a2838383611423565b6110ad600082610e1a565b6001600360008573ffffffffffffffffffffffffffffffffffffffff1673ffffffffffffffffffffffffffffffffffffffff16815260200190815260200160002060008282546110fd919061273d565b925050819055506001600360008473ffffffffffffffffffffffffffffffffffffffff1673ffffffffffffffffffffffffffffffffffffffff16815260200190815260200160002060008282546111549190612771565b92505081905550816002600083815260200190815260200160002060006101000a81548173ffffffffffffffffffffffffffffffffffffffff021916908373ffffffffffffffffffffffffffffffffffffffff160217905550808273ffffffffffffffffffffffffffffffffffffffff168473ffffffffffffffffffffffffffffffffffffffff167fddf252ad1be2c89b69c2b068fc378daa952ba7f163c4a11628f55a4df523b3ef60405160405180910390a4611213838383611428565b505050565b8173ffffffffffffffffffffffffffffffffffffffff168373ffffffffffffffffffffffffffffffffffffffff161415611287576040517f08c379a000000000000000000000000000000000000000000000000000000000815260040161127e90612813565b60405180910390fd5b80600560008573ffffffffffffffffffffffffffffffffffffffff1673ffffffffffffffffffffffffffffffffffffffff16815260200190815260200160002060008473ffffffffffffffffffffffffffffffffffffffff1673ffffffffffffffffffffffffffffffffffffffff16815260200190815260200160002060006101000a81548160ff0219169083151502179055508173ffffffffffffffffffffffffffffffffffffffff168373ffffffffffffffffffffffffffffffffffffffff167f17307eab39ab6107e8899845ad3d59bd9653f200f220920489ca2b5937696c31836040516113789190611964565b60405180910390a3505050565b6001816000016000828254019250508190555050565b600081600001549050919050565b6113c382826040518060200160405280600081525061142d565b5050565b6113d2848484610fb1565b6113de84848484611488565b61141d576040517f08c379a0000000000000000000000000000000000000000000000000000000008152600401611414906128a5565b60405180910390fd5b50505050565b505050565b505050565b6114378383611610565b6114446000848484611488565b611483576040517f08c379a000000000000000000000000000000000000000000000000000000000815260040161147a906128a5565b60405180910390fd5b505050565b60006114a98473ffffffffffffffffffffffffffffffffffffffff166117ea565b15611603578373ffffffffffffffffffffffffffffffffffffffff1663150b7a026114d2610e12565b8786866040518563ffffffff1660e01b81526004016114f4949392919061291a565b6020604051808303816000875af192505050801561153057506040513d601f19601f8201168201806040525081019061152d919061297b565b60015b6115b3573d8060008114611560576040519150601f19603f3d011682016040523d82523d6000602084013e611565565b606091505b506000815114156115ab576040517f08c379a00000000000000000000000000000000000000000000000000000000081526004016115a2906128a5565b60405180910390fd5b805181602001fd5b63150b7a0260e01b7bffffffffffffffffffffffffffffffffffffffffffffffffffffffff1916817bffffffffffffffffffffffffffffffffffffffffffffffffffffffff191614915050611608565b600190505b949350505050565b600073ffffffffffffffffffffffffffffffffffffffff168273ffffffffffffffffffffffffffffffffffffffff161415611680576040517f08c379a0000000000000000000000000000000000000000000000000000000008152600401611677906129f4565b60405180910390fd5b61168981610da6565b156116c9576040517f08c379a00000000000000000000000000000000000000000000000000000000081526004016116c090612a60565b60405180910390fd5b6116d560008383611423565b6001600360008473ffffffffffffffffffffffffffffffffffffffff1673ffffffffffffffffffffffffffffffffffffffff16815260200190815260200160002060008282546117259190612771565b92505081905550816002600083815260200190815260200160002060006101000a81548173ffffffffffffffffffffffffffffffffffffffff021916908373ffffffffffffffffffffffffffffffffffffffff160217905550808273ffffffffffffffffffffffffffffffffffffffff16600073ffffffffffffffffffffffffffffffffffffffff167fddf252ad1be2c89b69c2b068fc378daa952ba7f163c4a11628f55a4df523b3ef60405160405180910390a46117e660008383611428565b5050565b6000808273ffffffffffffffffffffffffffffffffffffffff163b119050919050565b82805461181990612096565b90600052602060002090601f01602090048101928261183b5760008555611882565b82601f1061185457805160ff1916838001178555611882565b82800160010185558215611882579182015b82811115611881578251825591602001919060010190611866565b5b50905061188f9190611893565b5090565b5b808211156118ac576000816000905550600101611894565b5090565b6000604051905090565b600080fd5b600080fd5b60007fffffffff0000000000000000000000000000000000000000000000000000000082169050919050565b6118f9816118c4565b811461190457600080fd5b50565b600081359050611916816118f0565b92915050565b600060208284031215611932576119316118ba565b5b600061194084828501611907565b91505092915050565b60008115159050919050565b61195e81611949565b82525050565b60006020820190506119796000830184611955565b92915050565b600081519050919050565b600082825260208201905092915050565b60005b838110156119b957808201518184015260208101905061199e565b838111156119c8576000848401525b50505050565b6000601f19601f8301169050919050565b60006119ea8261197f565b6119f4818561198a565b9350611a0481856020860161199b565b611a0d816119ce565b840191505092915050565b60006020820190508181036000830152611a3281846119df565b905092915050565b6000819050919050565b611a4d81611a3a565b8114611a5857600080fd5b50565b600081359050611a6a81611a44565b92915050565b600060208284031215611a8657611a856118ba565b5b6000611a9484828501611a5b565b91505092915050565b600073ffffffffffffffffffffffffffffffffffffffff82169050919050565b6000611ac882611a9d565b9050919050565b611ad881611abd565b82525050565b6000602082019050611af36000830184611acf565b92915050565b611b0281611abd565b8114611b0d57600080fd5b50565b600081359050611b1f81611af9565b92915050565b60008060408385031215611b3c57611b3b6118ba565b5b6000611b4a85828601611b10565b9250506020611b5b85828601611a5b565b9150509250929050565b600080600060608486031215611b7e57611b7d6118ba565b5b6000611b8c86828701611b10565b9350506020611b9d86828701611b10565b9250506040611bae86828701611a5b565b9150509250925092565b600060208284031215611bce57611bcd6118ba565b5b6000611bdc84828501611b10565b91505092915050565b611bee81611a3a565b82525050565b6000602082019050611c096000830184611be5565b92915050565b611c1881611949565b8114611c2357600080fd5b50565b600081359050611c3581611c0f565b92915050565b60008060408385031215611c5257611c516118ba565b5b6000611c6085828601611b10565b9250506020611c7185828601611c26565b9150509250929050565b600080fd5b600080fd5b7f4e487b7100000000000000000000000000000000000000000000000000000000600052604160045260246000fd5b611cbd826119ce565b810181811067ffffffffffffffff82111715611cdc57611cdb611c85565b5b80604052505050565b6000611cef6118b0565b9050611cfb8282611cb4565b919050565b600067ffffffffffffffff821115611d1b57611d1a611c85565b5b611d24826119ce565b9050602081019050919050565b82818337600083830152505050565b6000611d53611d4e84611d00565b611ce5565b905082815260208101848484011115611d6f57611d6e611c80565b5b611d7a848285611d31565b509392505050565b600082601f830112611d9757611d96611c7b565b5b8135611da7848260208601611d40565b91505092915050565b600063ffffffff82169050919050565b611dc981611db0565b8114611dd457600080fd5b50565b600081359050611de681611dc0565b92915050565b6000611df782611a9d565b9050919050565b611e0781611dec565b8114611e1257600080fd5b50565b600081359050611e2481611dfe565b92915050565b600080600060608486031215611e4357611e426118ba565b5b600084013567ffffffffffffffff811115611e6157611e606118bf565b5b611e6d86828701611d82565b9350506020611e7e86828701611dd7565b9250506040611e8f86828701611e15565b9150509250925092565b600067ffffffffffffffff821115611eb457611eb3611c85565b5b611ebd826119ce565b9050602081019050919050565b6000611edd611ed884611e99565b611ce5565b905082815260208101848484011115611ef957611ef8611c80565b5b611f04848285611d31565b509392505050565b600082601f830112611f2157611f20611c7b565b5b8135611f31848260208601611eca565b91505092915050565b60008060008060808587031215611f5457611f536118ba565b5b6000611f6287828801611b10565b9450506020611f7387828801611b10565b9350506040611f8487828801611a5b565b925050606085013567ffffffffffffffff811115611fa557611fa46118bf565b5b611fb187828801611f0c565b91505092959194509250565b611fc681611db0565b82525050565b611fd581611dec565b82525050565b6000608082019050611ff06000830187611be5565b611ffd6020830186611fbd565b61200a6040830185611fcc565b818103606083015261201c81846119df565b905095945050505050565b6000806040838503121561203e5761203d6118ba565b5b600061204c85828601611b10565b925050602061205d85828601611b10565b9150509250929050565b7f4e487b7100000000000000000000000000000000000000000000000000000000600052602260045260246000fd5b600060028204905060018216806120ae57607f821691505b602082108114156120c2576120c1612067565b5b50919050565b7f4552433732313a20617070726f76656420717565727920666f72206e6f6e657860008201527f697374656e7420746f6b656e0000000000000000000000000000000000000000602082015250565b6000612124602c8361198a565b915061212f826120c8565b604082019050919050565b6000602082019050818103600083015261215381612117565b9050919050565b7f4552433732313a20617070726f76616c20746f2063757272656e74206f776e6560008201527f7200000000000000000000000000000000000000000000000000000000000000602082015250565b60006121b660218361198a565b91506121c18261215a565b604082019050919050565b600060208201905081810360008301526121e5816121a9565b9050919050565b7f4552433732313a20617070726f76652063616c6c6572206973206e6f74206f7760008201527f6e6572206e6f7220617070726f76656420666f7220616c6c0000000000000000602082015250565b600061224860388361198a565b9150612253826121ec565b604082019050919050565b600060208201905081810360008301526122778161223b565b9050919050565b7f4552433732313a207472616e736665722063616c6c6572206973206e6f74206f60008201527f776e6572206e6f7220617070726f766564000000000000000000000000000000602082015250565b60006122da60318361198a565b91506122e58261227e565b604082019050919050565b60006020820190508181036000830152612309816122cd565b9050919050565b7f4552433732313a206f776e657220717565727920666f72206e6f6e657869737460008201527f656e7420746f6b656e0000000000000000000000000000000000000000000000602082015250565b600061236c60298361198a565b915061237782612310565b604082019050919050565b6000602082019050818103600083015261239b8161235f565b9050919050565b7f4552433732313a2062616c616e636520717565727920666f7220746865207a6560008201527f726f206164647265737300000000000000000000000000000000000000000000602082015250565b60006123fe602a8361198a565b9150612409826123a2565b604082019050919050565b6000602082019050818103600083015261242d816123f1565b9050919050565b7f62656e6566696369617279206164647265737320646f6573206e6f742065786960008201527f7374000000000000000000000000000000000000000000000000000000000000602082015250565b600061249060228361198a565b915061249b82612434565b604082019050919050565b600060208201905081810360008301526124bf81612483565b9050919050565b7f4552433732314d657461646174613a2055524920717565727920666f72206e6f60008201527f6e6578697374656e7420746f6b656e0000000000000000000000000000000000602082015250565b6000612522602f8361198a565b915061252d826124c6565b604082019050919050565b6000602082019050818103600083015261255181612515565b9050919050565b7f4552433732313a206f70657261746f7220717565727920666f72206e6f6e657860008201527f697374656e7420746f6b656e0000000000000000000000000000000000000000602082015250565b60006125b4602c8361198a565b91506125bf82612558565b604082019050919050565b600060208201905081810360008301526125e3816125a7565b9050919050565b7f4552433732313a207472616e736665722066726f6d20696e636f72726563742060008201527f6f776e6572000000000000000000000000000000000000000000000000000000602082015250565b600061264660258361198a565b9150612651826125ea565b604082019050919050565b6000602082019050818103600083015261267581612639565b9050919050565b7f4552433732313a207472616e7366657220746f20746865207a65726f2061646460008201527f7265737300000000000000000000000000000000000000000000000000000000602082015250565b60006126d860248361198a565b91506126e38261267c565b604082019050919050565b60006020820190508181036000830152612707816126cb565b9050919050565b7f4e487b7100000000000000000000000000000000000000000000000000000000600052601160045260246000fd5b600061274882611a3a565b915061275383611a3a565b9250828210156127665761276561270e565b5b828203905092915050565b600061277c82611a3a565b915061278783611a3a565b9250827fffffffffffffffffffffffffffffffffffffffffffffffffffffffffffffffff038211156127bc576127bb61270e565b5b828201905092915050565b7f4552433732313a20617070726f766520746f2063616c6c657200000000000000600082015250565b60006127fd60198361198a565b9150612808826127c7565b602082019050919050565b6000602082019050818103600083015261282c816127f0565b9050919050565b7f4552433732313a207472616e7366657220746f206e6f6e20455243373231526560008201527f63656976657220696d706c656d656e7465720000000000000000000000000000602082015250565b600061288f60328361198a565b915061289a82612833565b604082019050919050565b600060208201905081810360008301526128be81612882565b9050919050565b600081519050919050565b600082825260208201905092915050565b60006128ec826128c5565b6128f681856128d0565b935061290681856020860161199b565b61290f816119ce565b840191505092915050565b600060808201905061292f6000830187611acf565b61293c6020830186611acf565b6129496040830185611be5565b818103606083015261295b81846128e1565b905095945050505050565b600081519050612975816118f0565b92915050565b600060208284031215612991576129906118ba565b5b600061299f84828501612966565b91505092915050565b7f4552433732313a206d696e7420746f20746865207a65726f2061646472657373600082015250565b60006129de60208361198a565b91506129e9826129a8565b602082019050919050565b60006020820190508181036000830152612a0d816129d1565b9050919050565b7f4552433732313a20746f6b656e20616c7265616479206d696e74656400000000600082015250565b6000612a4a601c8361198a565b9150612a5582612a14565b602082019050919050565b60006020820190508181036000830152612a7981612a3d565b905091905056fea264697066735822122061800bba3b62c4679919e0c452d0eb6d13a189f9a19ac9a1481e9aa7b22748f564736f6c634300080b0033",
  "immutableReferences": {},
  "source": "pragma solidity ^0.8.0;\n\nimport \"../node_modules/@openzeppelin/contracts/token/ERC721/ERC721.sol\";\nimport \"../node_modules/@openzeppelin/contracts/utils/Address.sol\";\nimport \"../node_modules/@openzeppelin/contracts/utils/Counters.sol\";\n\n//@TODO: create migrations file \n//@TODO: include contract address in front end\n\ncontract CardContract is ERC721 {\n    using Counters for Counters.Counter;\n    Counters.Counter private _tokenIds;\n \n   //@TODO: add name and symbol \n   constructor () ERC721(\"\",\"\"){}\n\n   /**\n    * Defines an nft card \n    */\n    struct Card {\n\n        // unique ID for given card \n        uint256 id;\n\n        // the rate of the harberger tax that will be charged for owning a card \n        uint32 fee; \n\n        // the address that receives the revenue from the harberger tax\n        address payable beneficiary; \n\n        // universal resource identifier for the card use in frontend\n        string uri;\n    }\n    \n    mapping(address => uint256) ownerTokenCount;\n    mapping(uint256 => address) tokenOwner;\n    mapping(uint256 => Card) public Cards;\n\n    /**\n     * Mints a new card  \n     */\n    function mintCard(string memory uri, uint32 fee, address payable beneficiary) public returns(uint256) {\n        require(beneficiary != address(0), \"beneficiary address does not exist\");\n        _tokenIds.increment();\n        uint256 newCardId = _tokenIds.current();\n        _safeMint(msg.sender, newCardId);\n        Cards[newCardId] = Card(newCardId, fee, beneficiary, uri);\n        return newCardId;\n    }\n\n    function tokenURI(uint256 cardId) public view override returns (string memory) {\n        require(_exists(cardId), \"ERC721Metadata: URI query for nonexistent token\");\n\n        return Cards[cardId].uri;\n      \n    }\n} \n\n",
  "sourcePath": "/Users/eerinahaque/Projects/GitHub/HT/contracts/CardToken.sol",
  "compiler": {
    "name": "solc",
    "version": "0.8.11+commit.d7f03943.Emscripten.clang"
  },
  "schemaVersion": "3.4.1",
  "updatedAt": "2022-02-12T22:10:05.040Z",
  "devdoc": {
    "kind": "dev",
    "methods": {
      "approve(address,uint256)": {
        "details": "See {IERC721-approve}."
      },
      "balanceOf(address)": {
        "details": "See {IERC721-balanceOf}."
      },
      "getApproved(uint256)": {
        "details": "See {IERC721-getApproved}."
      },
      "isApprovedForAll(address,address)": {
        "details": "See {IERC721-isApprovedForAll}."
      },
      "name()": {
        "details": "See {IERC721Metadata-name}."
      },
      "ownerOf(uint256)": {
        "details": "See {IERC721-ownerOf}."
      },
      "safeTransferFrom(address,address,uint256)": {
        "details": "See {IERC721-safeTransferFrom}."
      },
      "safeTransferFrom(address,address,uint256,bytes)": {
        "details": "See {IERC721-safeTransferFrom}."
      },
      "setApprovalForAll(address,bool)": {
        "details": "See {IERC721-setApprovalForAll}."
      },
      "supportsInterface(bytes4)": {
        "details": "See {IERC165-supportsInterface}."
      },
      "symbol()": {
        "details": "See {IERC721Metadata-symbol}."
      },
      "transferFrom(address,address,uint256)": {
        "details": "See {IERC721-transferFrom}."
      }
    },
    "version": 1
  },
  "userdoc": {
    "kind": "user",
    "methods": {
      "mintCard(string,uint32,address)": {
        "notice": "Mints a new card  "
      }
    },
    "version": 1
  }
}