{
  "contractName": "Market",
  "abi": [
    {
      "anonymous": false,
      "inputs": [
        {
          "indexed": false,
          "internalType": "address",
          "name": "account",
          "type": "address"
        }
      ],
      "name": "Paused",
      "type": "event"
    },
    {
      "anonymous": false,
      "inputs": [
        {
          "indexed": false,
          "internalType": "address",
          "name": "account",
          "type": "address"
        }
      ],
      "name": "Unpaused",
      "type": "event"
    },
    {
      "anonymous": false,
      "inputs": [
        {
          "indexed": false,
          "internalType": "uint256",
          "name": "id",
          "type": "uint256"
        },
        {
          "indexed": false,
          "internalType": "uint256",
          "name": "tokenId",
          "type": "uint256"
        },
        {
          "indexed": false,
          "internalType": "uint256",
          "name": "askingPrice",
          "type": "uint256"
        }
      ],
      "name": "cardAdded",
      "type": "event"
    },
    {
      "anonymous": false,
      "inputs": [
        {
          "indexed": false,
          "internalType": "uint256",
          "name": "id",
          "type": "uint256"
        },
        {
          "indexed": false,
          "internalType": "address",
          "name": "owner",
          "type": "address"
        },
        {
          "indexed": false,
          "internalType": "uint256",
          "name": "amount",
          "type": "uint256"
        }
      ],
      "name": "cardDeposit",
      "type": "event"
    },
    {
      "anonymous": false,
      "inputs": [
        {
          "indexed": false,
          "internalType": "uint256",
          "name": "id",
          "type": "uint256"
        },
        {
          "indexed": false,
          "internalType": "address",
          "name": "owner",
          "type": "address"
        },
        {
          "indexed": false,
          "internalType": "uint256",
          "name": "askingPrice",
          "type": "uint256"
        }
      ],
      "name": "cardForeclosed",
      "type": "event"
    },
    {
      "anonymous": false,
      "inputs": [
        {
          "indexed": false,
          "internalType": "uint256",
          "name": "id",
          "type": "uint256"
        },
        {
          "indexed": false,
          "internalType": "address",
          "name": "buyer",
          "type": "address"
        },
        {
          "indexed": false,
          "internalType": "uint256",
          "name": "askingPrice",
          "type": "uint256"
        }
      ],
      "name": "cardSold",
      "type": "event"
    },
    {
      "anonymous": false,
      "inputs": [
        {
          "indexed": false,
          "internalType": "uint256",
          "name": "id",
          "type": "uint256"
        },
        {
          "indexed": false,
          "internalType": "address",
          "name": "owner",
          "type": "address"
        },
        {
          "indexed": false,
          "internalType": "uint256",
          "name": "askingPrice",
          "type": "uint256"
        }
      ],
      "name": "cardUpdatePrice",
      "type": "event"
    },
    {
      "inputs": [
        {
          "internalType": "uint256",
          "name": "",
          "type": "uint256"
        }
      ],
      "name": "adminList",
      "outputs": [
        {
          "internalType": "address",
          "name": "",
          "type": "address"
        }
      ],
      "stateMutability": "view",
      "type": "function"
    },
    {
      "inputs": [
        {
          "internalType": "uint256",
          "name": "",
          "type": "uint256"
        }
      ],
      "name": "auctionCardList",
      "outputs": [
        {
          "internalType": "uint256",
          "name": "id",
          "type": "uint256"
        },
        {
          "internalType": "address",
          "name": "tokenAddress",
          "type": "address"
        },
        {
          "internalType": "uint256",
          "name": "tokenId",
          "type": "uint256"
        },
        {
          "internalType": "address payable",
          "name": "seller",
          "type": "address"
        },
        {
          "internalType": "uint256",
          "name": "askingPrice",
          "type": "uint256"
        },
        {
          "internalType": "address payable",
          "name": "beneficiary",
          "type": "address"
        },
        {
          "internalType": "uint256",
          "name": "fee",
          "type": "uint256"
        },
        {
          "internalType": "bool",
          "name": "isOwned",
          "type": "bool"
        }
      ],
      "stateMutability": "view",
      "type": "function"
    },
    {
      "inputs": [
        {
          "internalType": "address",
          "name": "",
          "type": "address"
        }
      ],
      "name": "benefactorFunds",
      "outputs": [
        {
          "internalType": "uint256",
          "name": "",
          "type": "uint256"
        }
      ],
      "stateMutability": "view",
      "type": "function"
    },
    {
      "inputs": [
        {
          "internalType": "uint256",
          "name": "",
          "type": "uint256"
        }
      ],
      "name": "benefactors",
      "outputs": [
        {
          "internalType": "address",
          "name": "",
          "type": "address"
        }
      ],
      "stateMutability": "view",
      "type": "function"
    },
    {
      "inputs": [
        {
          "internalType": "address",
          "name": "",
          "type": "address"
        }
      ],
      "name": "deposit",
      "outputs": [
        {
          "internalType": "uint256",
          "name": "",
          "type": "uint256"
        }
      ],
      "stateMutability": "view",
      "type": "function"
    },
    {
      "inputs": [],
      "name": "paused",
      "outputs": [
        {
          "internalType": "bool",
          "name": "",
          "type": "bool"
        }
      ],
      "stateMutability": "view",
      "type": "function"
    },
    {
      "inputs": [
        {
          "internalType": "address",
          "name": "",
          "type": "address"
        },
        {
          "internalType": "uint256",
          "name": "",
          "type": "uint256"
        }
      ],
      "name": "totalOwedTokenCost",
      "outputs": [
        {
          "internalType": "uint256",
          "name": "",
          "type": "uint256"
        }
      ],
      "stateMutability": "view",
      "type": "function"
    },
    {
      "inputs": [
        {
          "internalType": "address",
          "name": "tokenAddress",
          "type": "address"
        },
        {
          "internalType": "uint256",
          "name": "tokenId",
          "type": "uint256"
        },
        {
          "internalType": "uint256",
          "name": "askingPrice",
          "type": "uint256"
        },
        {
          "internalType": "address payable",
          "name": "beneficiary",
          "type": "address"
        },
        {
          "internalType": "uint256",
          "name": "fee",
          "type": "uint256"
        }
      ],
      "name": "addCardToMarket",
      "outputs": [
        {
          "internalType": "uint256",
          "name": "",
          "type": "uint256"
        }
      ],
      "stateMutability": "nonpayable",
      "type": "function"
    },
    {
      "inputs": [
        {
          "internalType": "uint256",
          "name": "id",
          "type": "uint256"
        },
        {
          "internalType": "uint256",
          "name": "newAssessedPrice",
          "type": "uint256"
        }
      ],
      "name": "forceSale",
      "outputs": [],
      "stateMutability": "payable",
      "type": "function"
    },
    {
      "inputs": [
        {
          "internalType": "uint256",
          "name": "id",
          "type": "uint256"
        }
      ],
      "name": "depositFunds",
      "outputs": [
        {
          "internalType": "uint256",
          "name": "",
          "type": "uint256"
        }
      ],
      "stateMutability": "payable",
      "type": "function"
    },
    {
      "inputs": [
        {
          "internalType": "uint256",
          "name": "id",
          "type": "uint256"
        }
      ],
      "name": "forecloseCard",
      "outputs": [],
      "stateMutability": "nonpayable",
      "type": "function"
    }
  ],
  "bytecode": "0x608060405234801561001057600080fd5b5060008060006101000a81548160ff02191690831515021790555061220d8061003a6000396000f3fe60806040526004361061009c5760003560e01c8063a99a425911610064578063a99a4259146101ba578063c0527d46146101f7578063c255dd0014610234578063c5b75a1214610271578063cfb127db1461029a578063f340fa01146102b65761009c565b806311117fc8146100a1578063128ee161146100de5780633b76594d1461011b5780635c975abb1461014b578063a2997f9914610176575b600080fd5b3480156100ad57600080fd5b506100c860048036038101906100c391906117d1565b6102f3565b6040516100d5919061183f565b60405180910390f35b3480156100ea57600080fd5b50610105600480360381019061010091906117d1565b610332565b604051610112919061183f565b60405180910390f35b610135600480360381019061013091906117d1565b610365565b6040516101429190611869565b60405180910390f35b34801561015757600080fd5b506101606107a5565b60405161016d919061189f565b60405180910390f35b34801561018257600080fd5b5061019d600480360381019061019891906117d1565b6107bb565b6040516101b19897969594939291906118db565b60405180910390f35b3480156101c657600080fd5b506101e160048036038101906101dc9190611985565b610880565b6040516101ee9190611869565b60405180910390f35b34801561020357600080fd5b5061021e600480360381019061021991906119f1565b6108a5565b60405161022b9190611869565b60405180910390f35b34801561024057600080fd5b5061025b60048036038101906102569190611a6c565b610d48565b6040516102689190611869565b60405180910390f35b34801561027d57600080fd5b50610298600480360381019061029391906117d1565b610d60565b005b6102b460048036038101906102af9190611a99565b61118b565b005b3480156102c257600080fd5b506102dd60048036038101906102d89190611a6c565b611752565b6040516102ea9190611869565b60405180910390f35b6001818154811061030357600080fd5b906000526020600020016000915054906101000a900473ffffffffffffffffffffffffffffffffffffffff1681565b60086020528060005260406000206000915054906101000a900473ffffffffffffffffffffffffffffffffffffffff1681565b600081600380549050811080156103a05750806003828154811061038c5761038b611ad9565b5b906000526020600020906008020160000154145b6103df576040517f08c379a00000000000000000000000000000000000000000000000000000000081526004016103d690611b65565b60405180910390fd5b82600381815481106103f4576103f3611ad9565b5b906000526020600020906008020160070160009054906101000a900460ff16610452576040517f08c379a000000000000000000000000000000000000000000000000000000000815260040161044990611bf7565b60405180910390fd5b6003848154811061046657610465611ad9565b5b906000526020600020906008020160030160009054906101000a900473ffffffffffffffffffffffffffffffffffffffff1673ffffffffffffffffffffffffffffffffffffffff163373ffffffffffffffffffffffffffffffffffffffff1614610505576040517f08c379a00000000000000000000000000000000000000000000000000000000081526004016104fc90611c89565b60405180910390fd5b61055734600660003373ffffffffffffffffffffffffffffffffffffffff1673ffffffffffffffffffffffffffffffffffffffff1681526020019081526020016000205461176a90919063ffffffff16565b506000600760003373ffffffffffffffffffffffffffffffffffffffff1673ffffffffffffffffffffffffffffffffffffffff168152602001908152602001600020600086815260200190815260200160002054905061061034600760003373ffffffffffffffffffffffffffffffffffffffff1673ffffffffffffffffffffffffffffffffffffffff16815260200190815260200160002060008881526020019081526020016000205461178090919063ffffffff16565b506003858154811061062557610624611ad9565b5b906000526020600020906008020160050160009054906101000a900473ffffffffffffffffffffffffffffffffffffffff1673ffffffffffffffffffffffffffffffffffffffff166108fc349081150290604051600060405180830381858888f1935050505015801561069c573d6000803e3d6000fd5b50600760003373ffffffffffffffffffffffffffffffffffffffff1673ffffffffffffffffffffffffffffffffffffffff168152602001908152602001600020600086815260200190815260200160002054610701348361178090919063ffffffff16565b1461070f5761070e611ca9565b5b7fa576ff65d787bcfa05790e47c25ddbedf581714e33e35225a3f0c52e4af7cd6385333460405161074293929190611cd8565b60405180910390a1600760003373ffffffffffffffffffffffffffffffffffffffff1673ffffffffffffffffffffffffffffffffffffffff1681526020019081526020016000206000868152602001908152602001600020549350505050919050565b60008060009054906101000a900460ff16905090565b600381815481106107cb57600080fd5b90600052602060002090600802016000915090508060000154908060010160009054906101000a900473ffffffffffffffffffffffffffffffffffffffff16908060020154908060030160009054906101000a900473ffffffffffffffffffffffffffffffffffffffff16908060040154908060050160009054906101000a900473ffffffffffffffffffffffffffffffffffffffff16908060060154908060070160009054906101000a900460ff16905088565b6007602052816000526040600020602052806000526040600020600091509150505481565b6000858560008290503373ffffffffffffffffffffffffffffffffffffffff168173ffffffffffffffffffffffffffffffffffffffff16636352211e846040518263ffffffff1660e01b81526004016108fe9190611869565b602060405180830381865afa15801561091b573d6000803e3d6000fd5b505050506040513d601f19601f8201168201806040525081019061093f9190611d24565b73ffffffffffffffffffffffffffffffffffffffff1614610995576040517f08c379a000000000000000000000000000000000000000000000000000000000815260040161098c90611de9565b60405180910390fd5b888860008290503073ffffffffffffffffffffffffffffffffffffffff168173ffffffffffffffffffffffffffffffffffffffff1663081812fc846040518263ffffffff1660e01b81526004016109ec9190611869565b602060405180830381865afa158015610a09573d6000803e3d6000fd5b505050506040513d601f19601f82011682018060405250810190610a2d9190611d24565b73ffffffffffffffffffffffffffffffffffffffff1614610a83576040517f08c379a0000000000000000000000000000000000000000000000000000000008152600401610a7a90611e7b565b60405180910390fd5b60008811610ac6576040517f08c379a0000000000000000000000000000000000000000000000000000000008152600401610abd90611ee7565b60405180910390fd5b6000600380549050905060036040518061010001604052808381526020018f73ffffffffffffffffffffffffffffffffffffffff1681526020018e81526020013373ffffffffffffffffffffffffffffffffffffffff1681526020018d81526020018c73ffffffffffffffffffffffffffffffffffffffff1681526020018b81526020016000151581525090806001815401808255809150506001900390600052602060002090600802016000909190919091506000820151816000015560208201518160010160006101000a81548173ffffffffffffffffffffffffffffffffffffffff021916908373ffffffffffffffffffffffffffffffffffffffff1602179055506040820151816002015560608201518160030160006101000a81548173ffffffffffffffffffffffffffffffffffffffff021916908373ffffffffffffffffffffffffffffffffffffffff1602179055506080820151816004015560a08201518160050160006101000a81548173ffffffffffffffffffffffffffffffffffffffff021916908373ffffffffffffffffffffffffffffffffffffffff16021790555060c0820151816006015560e08201518160070160006101000a81548160ff02191690831515021790555050506001600560008e815260200190815260200160002060006101000a81548160ff0219169083151502179055508060038281548110610cda57610cd9611ad9565b5b90600052602060002090600802016000015414610cfa57610cf9611ca9565b5b7ff1e65573b2901a01c1ff3af4ad8e587294a7f98c4e1db7336886d7192cf90cb7818d8d604051610d2d93929190611f07565b60405180910390a18097505050505050505095945050505050565b60096020528060005260406000206000915090505481565b8060038054905081108015610d9957508060038281548110610d8557610d84611ad9565b5b906000526020600020906008020160000154145b610dd8576040517f08c379a0000000000000000000000000000000000000000000000000000000008152600401610dcf90611b65565b60405180910390fd5b8160038181548110610ded57610dec611ad9565b5b906000526020600020906008020160070160009054906101000a900460ff16610e4b576040517f08c379a0000000000000000000000000000000000000000000000000000000008152600401610e4290611bf7565b60405180910390fd5b33600260003373ffffffffffffffffffffffffffffffffffffffff1673ffffffffffffffffffffffffffffffffffffffff16815260200190815260200160002060009054906101000a900460ff16610ed8576040517f08c379a0000000000000000000000000000000000000000000000000000000008152600401610ecf90611fb0565b60405180910390fd5b600060038581548110610eee57610eed611ad9565b5b906000526020600020906008020160030160009054906101000a900473ffffffffffffffffffffffffffffffffffffffff1690506000600660008373ffffffffffffffffffffffffffffffffffffffff1673ffffffffffffffffffffffffffffffffffffffff168152602001908152602001600020541480610ffe5750600760008273ffffffffffffffffffffffffffffffffffffffff1673ffffffffffffffffffffffffffffffffffffffff168152602001908152602001600020600086815260200190815260200160002054600660008373ffffffffffffffffffffffffffffffffffffffff1673ffffffffffffffffffffffffffffffffffffffff16815260200190815260200160002054105b61103d576040517f08c379a000000000000000000000000000000000000000000000000000000000815260040161103490612068565b60405180910390fd5b60006003868154811061105357611052611ad9565b5b906000526020600020906008020160070160006101000a81548160ff0219169083151502179055506003858154811061108f5761108e611ad9565b5b906000526020600020906008020160050160009054906101000a900473ffffffffffffffffffffffffffffffffffffffff16600386815481106110d5576110d4611ad9565b5b906000526020600020906008020160030160006101000a81548173ffffffffffffffffffffffffffffffffffffffff021916908373ffffffffffffffffffffffffffffffffffffffff1602179055507f102f922ecde40cc5423830c0cce62d574ef783d010a7ae352553f5b85598629d85826003888154811061115b5761115a611ad9565b5b90600052602060002090600802016004015460405161117c93929190611cd8565b60405180910390a15050505050565b81600380549050811080156111c4575080600382815481106111b0576111af611ad9565b5b906000526020600020906008020160000154145b611203576040517f08c379a00000000000000000000000000000000000000000000000000000000081526004016111fa90611b65565b60405180910390fd5b826003818154811061121857611217611ad9565b5b906000526020600020906008020160070160009054906101000a900460ff16611276576040517f08c379a000000000000000000000000000000000000000000000000000000000815260040161126d90611bf7565b60405180910390fd5b6003848154811061128a57611289611ad9565b5b906000526020600020906008020160010160009054906101000a900473ffffffffffffffffffffffffffffffffffffffff16600385815481106112d0576112cf611ad9565b5b90600052602060002090600802016002015460008290503073ffffffffffffffffffffffffffffffffffffffff168173ffffffffffffffffffffffffffffffffffffffff1663081812fc846040518263ffffffff1660e01b81526004016113379190611869565b602060405180830381865afa158015611354573d6000803e3d6000fd5b505050506040513d601f19601f820116820180604052508101906113789190611d24565b73ffffffffffffffffffffffffffffffffffffffff16146113ce576040517f08c379a00000000000000000000000000000000000000000000000000000000081526004016113c590611e7b565b60405180910390fd5b600387815481106113e2576113e1611ad9565b5b90600052602060002090600802016004015434101561140057600080fd5b6003878154811061141457611413611ad9565b5b906000526020600020906008020160030160009054906101000a900473ffffffffffffffffffffffffffffffffffffffff1673ffffffffffffffffffffffffffffffffffffffff163373ffffffffffffffffffffffffffffffffffffffff16141561147e57600080fd5b856003888154811061149357611492611ad9565b5b9060005260206000209060080201600401819055507fa6db04949667408a93e3ab0161a22dbf0c04f811aec3030dc89b13e831cdac0c8733886040516114db93929190611cd8565b60405180910390a1600387815481106114f7576114f6611ad9565b5b906000526020600020906008020160010160009054906101000a900473ffffffffffffffffffffffffffffffffffffffff1673ffffffffffffffffffffffffffffffffffffffff166342842e0e6003898154811061155857611557611ad9565b5b906000526020600020906008020160030160009054906101000a900473ffffffffffffffffffffffffffffffffffffffff163360038b8154811061159f5761159e611ad9565b5b9060005260206000209060080201600201546040518463ffffffff1660e01b81526004016115cf939291906120e7565b600060405180830381600087803b1580156115e957600080fd5b505af11580156115fd573d6000803e3d6000fd5b505050506003878154811061161557611614611ad9565b5b906000526020600020906008020160030160009054906101000a900473ffffffffffffffffffffffffffffffffffffffff1673ffffffffffffffffffffffffffffffffffffffff166108fc349081150290604051600060405180830381858888f1935050505015801561168c573d6000803e3d6000fd5b507f9bd7b7cd5c817d7eb8d88e9d2a58a131156aece6c6aa7cebccd467b826aecd7d8733346040516116c093929190611cd8565b60405180910390a13373ffffffffffffffffffffffffffffffffffffffff16600388815481106116f3576116f2611ad9565b5b906000526020600020906008020160030160009054906101000a900473ffffffffffffffffffffffffffffffffffffffff1673ffffffffffffffffffffffffffffffffffffffff161461174957611748611ca9565b5b50505050505050565b60066020528060005260406000206000915090505481565b60008183611778919061214d565b905092915050565b6000818361178e91906121a3565b905092915050565b600080fd5b6000819050919050565b6117ae8161179b565b81146117b957600080fd5b50565b6000813590506117cb816117a5565b92915050565b6000602082840312156117e7576117e6611796565b5b60006117f5848285016117bc565b91505092915050565b600073ffffffffffffffffffffffffffffffffffffffff82169050919050565b6000611829826117fe565b9050919050565b6118398161181e565b82525050565b60006020820190506118546000830184611830565b92915050565b6118638161179b565b82525050565b600060208201905061187e600083018461185a565b92915050565b60008115159050919050565b61189981611884565b82525050565b60006020820190506118b46000830184611890565b92915050565b60006118c5826117fe565b9050919050565b6118d5816118ba565b82525050565b6000610100820190506118f1600083018b61185a565b6118fe602083018a611830565b61190b604083018961185a565b61191860608301886118cc565b611925608083018761185a565b61193260a08301866118cc565b61193f60c083018561185a565b61194c60e0830184611890565b9998505050505050505050565b6119628161181e565b811461196d57600080fd5b50565b60008135905061197f81611959565b92915050565b6000806040838503121561199c5761199b611796565b5b60006119aa85828601611970565b92505060206119bb858286016117bc565b9150509250929050565b6119ce816118ba565b81146119d957600080fd5b50565b6000813590506119eb816119c5565b92915050565b600080600080600060a08688031215611a0d57611a0c611796565b5b6000611a1b88828901611970565b9550506020611a2c888289016117bc565b9450506040611a3d888289016117bc565b9350506060611a4e888289016119dc565b9250506080611a5f888289016117bc565b9150509295509295909350565b600060208284031215611a8257611a81611796565b5b6000611a9084828501611970565b91505092915050565b60008060408385031215611ab057611aaf611796565b5b6000611abe858286016117bc565b9250506020611acf858286016117bc565b9150509250929050565b7f4e487b7100000000000000000000000000000000000000000000000000000000600052603260045260246000fd5b600082825260208201905092915050565b7f436f756c64206e6f742066696e6420636172642e000000000000000000000000600082015250565b6000611b4f601483611b08565b9150611b5a82611b19565b602082019050919050565b60006020820190508181036000830152611b7e81611b42565b9050919050565b7f43616e6e6f7420666f72636520612073616c65206f6e206120666f7265636c6f60008201527f73656420636172642e0000000000000000000000000000000000000000000000602082015250565b6000611be1602983611b08565b9150611bec82611b85565b604082019050919050565b60006020820190508181036000830152611c1081611bd4565b9050919050565b7f43616e6e6f74206465706f7369742066756e647320666f72206120636172642060008201527f796f7520646f6e2774206f776e00000000000000000000000000000000000000602082015250565b6000611c73602d83611b08565b9150611c7e82611c17565b604082019050919050565b60006020820190508181036000830152611ca281611c66565b9050919050565b7f4e487b7100000000000000000000000000000000000000000000000000000000600052600160045260246000fd5b6000606082019050611ced600083018661185a565b611cfa6020830185611830565b611d07604083018461185a565b949350505050565b600081519050611d1e81611959565b92915050565b600060208284031215611d3a57611d39611796565b5b6000611d4884828501611d0f565b91505092915050565b7f54686973206f7065726174696f6e2063616e206f6e6c7920626520657865637560008201527f74656420627920746865206361726427732062656e656669636961727920286d60208201527f696e746572290000000000000000000000000000000000000000000000000000604082015250565b6000611dd3604683611b08565b9150611dde82611d51565b606082019050919050565b60006020820190508181036000830152611e0281611dc6565b9050919050565b7f436f6e747261637420686173206e6f74206265656e20617070726f766564207460008201527f6f206d616b65207472616e736665727300000000000000000000000000000000602082015250565b6000611e65603083611b08565b9150611e7082611e09565b604082019050919050565b60006020820190508181036000830152611e9481611e58565b9050919050565b7f43617264206d7573742068617665206120746178207261746500000000000000600082015250565b6000611ed1601983611b08565b9150611edc82611e9b565b602082019050919050565b60006020820190508181036000830152611f0081611ec4565b9050919050565b6000606082019050611f1c600083018661185a565b611f29602083018561185a565b611f36604083018461185a565b949350505050565b7f54686973206f7065726174696f6e2063616e206f6e6c7920626520657865637560008201527f7465642062792061646d696e0000000000000000000000000000000000000000602082015250565b6000611f9a602c83611b08565b9150611fa582611f3e565b604082019050919050565b60006020820190508181036000830152611fc981611f8d565b9050919050565b7f506174726f6e207374696c6c2068617320656e6f7567682066756e647320646560008201527f706f736974656420746f2072657461696e206f776e657273686970206f66207460208201527f6865206361726400000000000000000000000000000000000000000000000000604082015250565b6000612052604783611b08565b915061205d82611fd0565b606082019050919050565b6000602082019050818103600083015261208181612045565b9050919050565b6000819050919050565b60006120ad6120a86120a3846117fe565b612088565b6117fe565b9050919050565b60006120bf82612092565b9050919050565b60006120d1826120b4565b9050919050565b6120e1816120c6565b82525050565b60006060820190506120fc60008301866120d8565b6121096020830185611830565b612116604083018461185a565b949350505050565b7f4e487b7100000000000000000000000000000000000000000000000000000000600052601160045260246000fd5b60006121588261179b565b91506121638361179b565b9250827fffffffffffffffffffffffffffffffffffffffffffffffffffffffffffffffff038211156121985761219761211e565b5b828201905092915050565b60006121ae8261179b565b91506121b98361179b565b9250828210156121cc576121cb61211e565b5b82820390509291505056fea264697066735822122008c4290adfaec2279d12aa6b31b997da9cd1c0c13ce25538bf45513d4caa01e264736f6c634300080b0033",
  "immutableReferences": {},
  "source": "pragma solidity ^0.8.0;\n\nimport \"../node_modules/@openzeppelin/contracts/token/ERC721/IERC721.sol\";\nimport \"../node_modules/@openzeppelin/contracts/utils/math/SafeMath.sol\";\nimport \"../node_modules/@openzeppelin/contracts/security/Pausable.sol\";\n\ncontract Market is Pausable {\n    \n    using SafeMath for uint256; \n\n    address[] public adminList;\n    mapping(address => bool) adminMap;\n\n    struct AuctionCard {\n        uint256 id;\n        address tokenAddress;\n        uint256 tokenId; \n        address payable seller; \n        uint256 askingPrice; \n        address payable beneficiary;\n        uint256 fee;\n        bool isOwned; // if false, then foreclosed or brand new\n    }\n\n    // listing of every card that hasn't yet been foreclosed\n    AuctionCard[] public auctionCardList;\n\n    // stores the asking prices of each card listed under a certain token\n    mapping(address => mapping(uint256 => uint256)) cardsAskPrice;\n    mapping(uint256 => bool) ownedCard;\n\n    // total funds remaining in deposit of a patron to hold a token\n    mapping(address => uint256) public deposit;\n\n    // total funds still owed by patron\n    mapping(address => mapping(uint256 => uint256)) public totalOwedTokenCost;\n    \n\n    // organization receiving tax revenue \n    mapping(uint256 => address) public benefactors;\n    mapping(address => uint256) public benefactorFunds;\n\n    /* EVENTS */\n\n    /// @notice emits an event when a new card is added to the market \n    event cardAdded(uint256 id, uint256 tokenId, uint256 askingPrice);\n\n    /// @notice emits an event when a forced sale occurs\n    event cardSold(uint256 id, address buyer, uint256 askingPrice);\n    \n    /// @notice emits an event when a card gets a new self-assessed price\n    event cardUpdatePrice(uint256 id, address owner, uint256 askingPrice);\n\n    /// @notice emits an event when the owner defaults on their tax and the card is foreclosed\n    event cardForeclosed(uint256 id, address owner, uint256 askingPrice);\n\n    /// @notice emits an event when a deposit is made\n    event cardDeposit(uint256 id, address owner, uint256 amount);\n\n    /* MODIFIERS */\n     \n    /**\n     * @notice Requires that only patrons of the card can call a given function\n     */\n     modifier OnlyPatron(uint256 id) {\n        require(auctionCardList[id].seller == msg.sender, \n            \"This operation can only be executed by the card's beneficiary\");\n         _;\n     }\n    /**\n     * @notice \n     */\n     modifier OnlyAdmin(address admin) {\n         require(adminMap[msg.sender], \"This operation can only be executed by admin\");\n         _;\n     }\n\n    /**\n     * @notice Requires that only the benefactors (minters) of the car can call a given function.\n     */\n    modifier OnlyBenefactor(address tokenAddress, uint256 tokenId) {\n        IERC721 tokenContract = IERC721(tokenAddress);\n        require(tokenContract.ownerOf(tokenId) == msg.sender, \n            \"This operation can only be executed by the card's beneficiary (minter)\");\n        _;\n    }\n \n    /** \n     * @notice Requires that the specified contract making an external call has been approved to make transfers. \n     */\n    modifier HasTransferApproval(address tokenAddress, uint256 tokenId) {\n        IERC721 tokenContract = IERC721(tokenAddress);\n        require(tokenContract.getApproved(tokenId) == address(this), \n            \"Contract has not been approved to make transfers\");\n        _;\n    }\n    \n    /**\n     * @notice Requires that the item is listed in the marketplace \n     */\n     modifier CardExists(uint256 id) {\n         require(id < auctionCardList.length && auctionCardList[id].id == id, \"Could not find card.\");\n         _;\n     }\n\n     modifier IsOwned(uint256 id) {\n         require(auctionCardList[id].isOwned, \"Cannot force a sale on a foreclosed card.\");\n         _;\n     }\n     \n     modifier IsForeclosed(uint256 id) {\n         require(!auctionCardList[id].isOwned, \"Cannot place a bid on a owned card.\");\n         _;\n     }\n\n     /* EXTERNAL FUNCTIONS */\n     /**\n      * @notice Lists a card for auction in the market \n      */\n     function addCardToMarket(address tokenAddress, uint256 tokenId, uint256 askingPrice, address payable beneficiary, uint256 fee) \n        OnlyBenefactor(tokenAddress, tokenId) \n        HasTransferApproval(tokenAddress, tokenId)\n        external\n        returns(uint256)\n        {\n        require(fee > 0, \"Card must have a tax rate\");\n        // @TODO:require that the card isn't for auction yet?\n        uint256 newCardId = auctionCardList.length;\n        auctionCardList.push(AuctionCard(newCardId, tokenAddress, tokenId, payable(msg.sender), askingPrice, beneficiary, fee, false));\n        ownedCard[tokenId] = true;\n\n        assert(auctionCardList[newCardId].id == newCardId);\n        emit cardAdded(newCardId, tokenId, askingPrice);\n        return newCardId;\n    } \n\n    /**\n     *  Forces a sale by buying an already owned card at a higher or equal assessed price.\n     */\n    function forceSale(uint256 id, uint256 newAssessedPrice) \n        payable\n        external\n        CardExists(id) \n        IsOwned(id) \n        HasTransferApproval(auctionCardList[id].tokenAddress, auctionCardList[id].tokenId) \n    {\n        require(msg.value >= auctionCardList[id].askingPrice);\n        require(msg.sender != auctionCardList[id].seller);\n        \n        // update card's new price\n        auctionCardList[id].askingPrice = newAssessedPrice;\n        emit cardUpdatePrice(id, msg.sender, newAssessedPrice);\n\n        // interface the nft and safetransfer from seller to buyer\n        IERC721(auctionCardList[id].tokenAddress).safeTransferFrom(auctionCardList[id].seller, msg.sender, auctionCardList[id].tokenId);\n        \n        // transfer funds to seller \n        auctionCardList[id].seller.transfer(msg.value);\n        emit cardSold(id, msg.sender, msg.value);\n        \n        assert(auctionCardList[id].seller == msg.sender);\n    } \n\n    // function bid(uint256 id, uint256 newAssessedPrice) \n    //     payable \n    //     external \n    //     CardExists(id)\n    //     IsForeclosed(id) \n    //     HasTransferApproval(auctionCardList[id].tokenAddress, auctionCardList[id].tokenId) \n    // {\n    //     require(msg.value >= auctionCardList[id].askingPrice);\n    //     // equire(msg.sender != auctionCardList[id].seller); is this required?\n\n    //     // update card's new price\n    //     auctionCardList[id].askingPrice = newAssessedPrice;\n    //     emit cardUpdatePrice(id, msg.sender, newAssessedPrice);\n\n    //     //@TODO: in foreclose function, make sure to change the seller so they reliquinsh ownership\n    //     // interface the nft and safetransfer from seller to buyer\n    //     IERC721(auctionCardList[id].tokenAddress).safeTransferFrom(auctionCardList[id].seller, msg.sender, auctionCardList[id].tokenId);\n\n    // }\n\n    function depositFunds(uint256 id) \n        external \n        payable \n        CardExists(id) \n        IsOwned(id) \n        returns(uint256)\n    {\n        require(msg.sender == auctionCardList[id].seller, \"Cannot deposit funds for a card you don't own\");\n\n        deposit[msg.sender].add(msg.value);\n        uint256 prevOwedBalance = totalOwedTokenCost[msg.sender][id];\n        totalOwedTokenCost[msg.sender][id].sub(msg.value);\n         \n        auctionCardList[id].beneficiary.transfer(msg.value);\n        assert(prevOwedBalance.sub(msg.value) == totalOwedTokenCost[msg.sender][id]);\n        emit cardDeposit(id, msg.sender, msg.value);\n        return totalOwedTokenCost[msg.sender][id];\n    }\n\n    function forecloseCard(uint256 id)\n        public \n        CardExists(id) \n        IsOwned(id) \n        OnlyAdmin(msg.sender)\n   {\n       address owner = auctionCardList[id].seller;\n       require(deposit[owner] == 0 || deposit[owner] < totalOwedTokenCost[owner][id],\n        \"Patron still has enough funds deposited to retain ownership of the card\");\n        \n        auctionCardList[id].isOwned = false;\n        auctionCardList[id].seller = auctionCardList[id].beneficiary; \n\n        emit cardForeclosed(id, owner, auctionCardList[id].askingPrice);\n   }\n\n   function _calculateFee(uint256 id) \n        view \n        internal\n        CardExists(id) \n        IsOwned(id) \n        returns(uint256)\n   {\n       return (auctionCardList[id].fee).mul(auctionCardList[id].askingPrice);\n   }\n}",
  "sourcePath": "/Users/eerinahaque/Projects/GitHub/HT/contracts/Marketplace.sol",
  "compiler": {
    "name": "solc",
    "version": "0.8.11+commit.d7f03943.Emscripten.clang"
  },
  "schemaVersion": "3.4.1",
  "updatedAt": "2022-02-13T04:31:35.222Z",
  "devdoc": {
    "kind": "dev",
    "methods": {
      "paused()": {
        "details": "Returns true if the contract is paused, and false otherwise."
      }
    },
    "version": 1
  },
  "userdoc": {
    "events": {
      "cardAdded(uint256,uint256,uint256)": {
        "notice": "emits an event when a new card is added to the market "
      },
      "cardDeposit(uint256,address,uint256)": {
        "notice": "emits an event when a deposit is made"
      },
      "cardForeclosed(uint256,address,uint256)": {
        "notice": "emits an event when the owner defaults on their tax and the card is foreclosed"
      },
      "cardSold(uint256,address,uint256)": {
        "notice": "emits an event when a forced sale occurs"
      },
      "cardUpdatePrice(uint256,address,uint256)": {
        "notice": "emits an event when a card gets a new self-assessed price"
      }
    },
    "kind": "user",
    "methods": {
      "addCardToMarket(address,uint256,uint256,address,uint256)": {
        "notice": "Lists a card for auction in the market "
      },
      "forceSale(uint256,uint256)": {
        "notice": "Forces a sale by buying an already owned card at a higher or equal assessed price."
      }
    },
    "version": 1
  }
}